:020000040800F2
:10000000002000208D72000889700008937000089D
:1000100000000000000000000000000000000000E0
:1000200000000000000000000000000099700008BF
:100030000000000000000000A3700008AD70000880
:10004000DD720008DD720008DD720008DD72000854
:10005000DD720008DD720008DD720008DD72000844
:10006000DD720008416F0008DD720008DD720008D3
:10007000DD720008DD72000800000000DD7200087B
:1000800000000000DD720008000000000000000019
:10009000DD72000800000000DD720008DD7200085B
:1000A000DD720008DD720008DD720008DD720008F4
:1000B000DD720008DD72000800000000DD7200083B
:1000C00010B5064C2378002B07D1054B002B02D02E
:1000D000044800E000BF0123237010BD2800002069
:1000E0000000000028730008044B10B5002B03D05B
:1000F0000349044800E000BF10BDC04600000000F6
:100100002C00002028730008002243088B4274D37F
:1001100003098B425FD3030A8B4244D3030B8B4208
:1001200028D3030C8B420DD3FF22090212BA030C11
:100130008B4202D31212090265D0030B8B4219D3F2
:1001400000E0090AC30B8B4201D3CB03C01A524112
:10015000830B8B4201D38B03C01A5241430B8B425A
:1001600001D34B03C01A5241030B8B4201D30B0343
:10017000C01A5241C30A8B4201D3CB02C01A52416A
:10018000830A8B4201D38B02C01A5241430A8B422D
:1001900001D34B02C01A5241030A8B4201D30B0216
:1001A000C01A5241CDD2C3098B4201D3CB01C01A30
:1001B000524183098B4201D38B01C01A524143093A
:1001C0008B4201D34B01C01A524103098B4201D328
:1001D0000B01C01A5241C3088B4201D3CB00C01A95
:1001E000524183088B4201D38B00C01A524143080D
:1001F0008B4201D34B00C01A5241411A00D2014632
:10020000524110467047FFE701B5002000F006F8A4
:1002100002BDC0460029F7D076E770477047C04658
:1002200070B500220C4B04000D0001F081F800288D
:1002300004D12000290000F0C1FF70BD064B002250
:100240002000290000F0A4FC00F0B8FF80231B066A
:100250009C466044F1E7C0460000E041F8B55746CF
:100260004E464546DE46E0B54702460088467F0AD0
:10027000360EC40F002E47D0FF2E24D0FB0080275F
:10028000FF041F43002399469A467F3E43465D0282
:100290005800DB0F6D0A000E984643D0FF283BD074
:1002A000EB0080250022ED041D437F383618731CB7
:1002B00041469B464B46614013430F2B64D875481B
:1002C0009B00C3589F46002F42D108239946063B06
:1002D000FF269A46DAE74146022A28D0032A00D1AF
:1002E000CEE0012A00D0ACE0114000200022CCB2C8
:1002F0004002D205400AE407104320433CBC90462C
:100300009946A246AB46F8BD002F15D10423994665
:10031000033B00269A46B9E7FF200222002DC5D0F4
:100320000322C3E7002D19D100200122BEE70124DA
:10033000FF220C400020DBE7380001F003F87626AE
:10034000431F9F4000237642361A99469A469DE7FE
:100350000C239946093BFF269A4697E7280000F0B0
:10036000F1FF431F9D4076235B42181A00229DE750
:1003700080200024C003FF22BAE73D005246ABE7CD
:100380003D0021005246A7E73B0C9C462A04120C74
:100390002B0C1400604665463F043F0C7C434243EF
:1003A0005D437B43270C9B18FF18BA4203D9802377
:1003B0005B029C46654424043A04240C1219930100
:1003C0005C1EA3413F0C920E7D191A43AD011543EB
:1003D0002B0104D501235E466A081D4015433200F7
:1003E0007F32002A25DD6B0704D00F232B40042B1E
:1003F00000D004352B0103D53200274B80321D403D
:10040000FE2A94DC0124A801400AD2B20C406FE716
:100410008020C003074207D0054205D1284340028F
:10042000400A4446FF2263E738434002400AFF2265
:100430005EE70124A31A1B2B05DD0C4000220020DF
:1004400056E75E46CBE72A002020DA40C31A9D40DB
:100450002B005D1EAB4113435A0704D00F221A40F4
:10046000042A00D004335A0104D5012401220C408F
:1004700000203DE701249B01580A0C40002237E789
:1004800080200124C00328434002400A0C40FF2280
:100490002EE7C04684730008FFFFFFF710B5041E67
:1004A00027D000F04FFF9E231B1A962B0ADC9622C2
:1004B000D21A94406402640ADBB26402DB05600A6B
:1004C000184310BD992B17DC9922D21A002A27DD78
:1004D00094402200134C1440510704D00F210A40CD
:1004E000042A00D00434620112D4A401640ADBB2ED
:1004F000E3E700230024E0E7B9222100D21A91406B
:100500000A00511E8A410521091ACC401443DBE739
:10051000044B1C409F23A4011B1A640ADBB2CCE7E6
:100520002200D7E7FFFFFFFBF0B557464546DE4602
:100530004E46E0B54C000E0387B0834692461D0040
:100540008046360B640DCF0F002C4FD06F4B9C4272
:1005500035D08023420F1B04F600134333439946E2
:10056000C30098466A4B00269C46002364440393CC
:100570002B031B0B9B466B00ED0F50465B0D01954B
:100580005ED0624A934253D05A46D1008022400F37
:10059000120402430A4393465246D1005C4A9446F1
:1005A000002263443800684084460290E41A1643EF
:1005B0000F2E00D9B4E0574BB6009B599F4603005D
:1005C000334399466CD1002398460233082603939F
:1005D000CEE7CB464146039A0197022A65D1019B9B
:1005E0004A4C9C460023002298466BE003003343AC
:1005F00099464ED0002E00D1BCE1300000F0A2FEA2
:1006000003000B3B1C2B00DDACE11D22D31A5A4624
:100610000100DA4008398E401300334399465B46A7
:100620008B40984600233C4C0026241A03939FE7F6
:1006300051465A46114329D1002293460232B1E76E
:10064000594601431ED05B46002B00D19EE158461F
:1006500000F078FE03000B3B1C2B00DD8FE1020055
:100660005946083A91408B461D21CB1A5146D94034
:100670000B0059460B4351469B469140264B0022A6
:100680001B1A8FE7002301229B468BE7514603226A
:1006900088E700239846013304260024039367E784
:1006A0000323B14603930C2662E7032A00D15CE2E0
:1006B000019B012A00D0E4E113409C460023002462
:1006C0000022984600211203130B0A0D12051A434B
:1006D0002305124C40462240134362465B00D2077A
:1006E0005B081343190007B03CBC90469946A246EC
:1006F000AB46F0BD002380229C4612039846034C73
:10070000E0E70023014C00229846DBE7FF070000EA
:1007100001FCFFFFC47300080DFCFFFFFFFF0F800B
:10072000D94500D939E100D134E1002346464D4690
:100730009A46013C5B460A0E1B021A430B02170C39
:10074000039313041B0C3900280090460193FFF714
:10075000DBFC0200019B83465A4328003900914686
:10076000FFF758FD350C09040D43A9450DD95B462B
:100770004544013BA84500D93AE1A94500D837E1F5
:1007800002235B429C464544E3444B46EB1A390046
:1007900018000493FFF7B8FC019B050043433900A0
:1007A00004989946FFF736FD330409041B0C0B43EC
:1007B000994509D943446A1E984500D91AE19945DB
:1007C00000D817E1023D43444A469B1A5A46120498
:1007D0002A4303999346100C0A0C914609045A4681
:1007E000090C4E460D001204120C4543059151436D
:1007F0007243704352190E0CB218954203D98025EA
:100800006D02AC466044150C09041204090C28184A
:100810005218834200D2CEE000D1C8E01D1A5346E0
:100820009E1AB24592415242AB1A9A46984500D15F
:1008300017E139001800FFF767FC019B05004343EF
:10084000390050460493FFF7E5FC04980B04310C83
:100850001943884209D941446B1E884500D907E1F4
:10086000884200D804E1023D4144049BCB1A1800A1
:1008700039000493FFF748FC019B8246434339004B
:1008800004980193FFF7C6FC01980B043104090C8E
:10089000194388420DD953464144013B884500D94C
:1008A000E8E0884200D8E5E002235B429C464144F0
:1008B000E244019B2D04CE1A51462943059D4F4623
:1008C0002A000B04080C1B0C5A4345437B43784316
:1008D0005B19170CFB189D4203D980256D02AC46AD
:1008E00060441D0C12041B04120C28189B1886422D
:1008F00000D293E000D18EE001231943A04BE3180E
:10090000002B00DC99E04A0700D09EE05A46D20155
:1009100006D55A469B4B1A4080239346DB00E318CA
:10092000994A934268DD0123029A984C1A400023A9
:10093000944698460022C5E680224B461203134295
:100940000AD05B46134206D11A431203120BAC467F
:1009500088468E4CB6E64B461A431203120BBC4631
:100960008A4CAFE603005A46283B9A400023914642
:10097000984657E6584600F0E5FC203040E6030074
:100980005246283B9A400021934677E600F0DAFC75
:1009900020305FE6884500D2C7E64B46DE075D089B
:1009A00043465B081E434346DB079A46C2E60025E2
:1009B000924500D333E7039E5946B446E244B2451C
:1009C000AD416D424544EB180139984507D2984234
:1009D00000D97FE000D1BCE01D1A8B461FE7984587
:1009E000FAD1039D5545F2D943468B461D1A16E7A9
:1009F0009B46CAE61500E7E65A46C90852070A436D
:100A00005B0590465C0D5A4601230299520219403B
:100A1000120B8C4656E6002B00D16FE746444A1E67
:100A2000B04529D91100864200D065E7039A934268
:100A300000D061E762E7012149420120C21A382A49
:100A400021DD029B03409C4638E60F220A40042A1F
:100A500000D15BE70A00111D91429241524293443A
:100A600054E7474BE318002BE5DD01225242F2E741
:100A70001D00FAE69A461CE7B04239D86ED0110044
:100A80003AE702933AE71F2A3CDC20239B1A0C002A
:100A90005846994098404B1E99415B46D440D340FC
:100AA000204308431A00430709D00F230340042BB7
:100AB00005D00100081D88429B415B42D2181302F9
:100AC0003AD50123029A01241A40002394469846FD
:100AD0000022F7E5022149428C46039DE344AC46DF
:100AE000E244AA45AD416D424544ED182D1A96E603
:100AF0008A1E03994D008D4289414942414476182E
:100B000003958FE71F204042C31A5846D840030080
:100B1000202A28D040205D46821A954029434A1E4B
:100B200091411943072300220B4009D00F230022D3
:100B30000B400800042BBDD1010053075202120BD9
:100B4000C9081943012388460299002419408C469C
:100B5000B8E55245BED88B46002560E6039D9D4210
:100B6000C6D3110062E70025D8E780225B46120356
:100B70001A43019B1203120B9C468846034CA1E5C5
:100B8000FF030000FFFFFFFEFE070000FF0700005D
:100B9000F0B54646D6464F460C03C0B5CD0F4E00C5
:100BA000610A440F0C43C1005800400D84468A4638
:100BB0000F001903500F490A0143C648760DA84695
:100BC000DB0FD200844500D1D8E001204340AB4286
:100BD00000D1A6E06046351A002D00DC05E10028B2
:100BE00010D10B00134300D1D7E06B1E002B00D0B7
:100BF0004BE153469F1ABA458041641A4042241A79
:100C000001261EE0B34B9E4248D080231B041943AB
:100C1000382D00DD19E11F2D00DD4CE120230F00F0
:100C20005B1B10009A409F40E840531E9A41E940E8
:100C3000074317435346DF1B611ABA45A441644278
:100C40000C1B230200D4C5E06402650A002D00D10C
:100C5000F6E0280000F076FB0300083B1F2B00DDC8
:100C6000E9E020223C00D21A9D40D4409F40254319
:100C70009E4200DDDBE09E1B731C1F2B00DD0AE1A2
:100C800020223800D21A290097402C009140D840E9
:100C90007A1E9741DC40002601430F437B0709D0B1
:100CA0000F233B40042B05D03B1DBB42BF417F427D
:100CB000E4191F00230225D5864B01369E4200D140
:100CC000AFE0854B01251C4043466207FF086402E4
:100CD00076051743240B760D1D4000212403230BBA
:100CE0000C0D7E4A24051C431440330523435B004E
:100CF000ED075B082B43380019001CBC9046994651
:100D0000A246F0BD012543466207FF081743E408E9
:100D10001D40704B9E4236D024037605240B760D81
:100D2000DBE76346F31A002B00DC94E06046002802
:100D300035D068488642B1D080273F043943382BEC
:100D400000DCFDE00A43170000217A1E974157445A
:100D500057458041091944420C1923023AD55D4B8D
:100D600001369E4200D14BE101225B4B1C407B08C7
:100D700017401F43E207174364088FE7080010433A
:100D800000D024E721E723003B4300D1B9E18022D2
:100D9000120314432403240B9FE72E007EE7080070
:100DA000104300D1CAE0581E8446002800D0E7E076
:100DB00052445245804164184042241817000126CD
:100DC000230207D50226CFE764462C4300D1B3E1C6
:100DD0002C0067467B0700D062E76307FF081F43CC
:100DE00001254346E4081D4093E7002D78D1751C8A
:100DF0006D056D0D012D00DCF2E05046801A824534
:100E0000BF41651A7F42ED1B8446280200D48CE066
:100E10005046171ABA4292410C1B5542651B984620
:100E200014E70125434600241D40002755E72A4CBE
:100E3000F61A2C4032E73D0028388540002717E796
:100E4000380000F07FFA203006E70A43170000213F
:100E50007A1E9741EEE6002B00D0E5E0731C9C461D
:100E60005B055B0D012B00DC9FE01A4B9C4500D11C
:100E7000C5E0524452458041641840422418E707B7
:100E8000520817436408664608E71248854200D1B5
:100E900085E01D00BCE629001F3EF140202B00D15B
:100EA0007FE04022D31A9D402F437D1EAF41002496
:100EB0000F4300268EE72B000F00203BDF40202D44
:100EC00071D040235D1BA9400A43511E8A41002175
:100ED0001743AFE6FF070000FFFF7FFFFFFF0F8014
:100EE000002E3ED0B34EB44545D0802636046D4228
:100EF0003443382D00DDA8E01F2D00DD1FE1202642
:100F000027005046761BB740E84007435046B040A4
:100F1000461EB041EC403843171ABA4292410C1BAE
:100F20005242A41A664698468BE6644667462C43AE
:100F300000D08BE6002500260027EAE61E00ADE67D
:100F40001F2B60DC2027F81A0F0084468740100012
:100F5000D840074360468240501E8241D940174323
:100F6000F5E626005046064305D0ED43002DD3D0CC
:100F7000904EB445BDD10C001700664698468DE6EC
:100F80008C4883420BD06346D9E6002D00D096E012
:100F90000800104300D1E2E00C0017009846854E8F
:100FA0007CE6002580E700218EE7230050460343BE
:100FB000002E00D0A8E0002B00D1DEE00B00134390
:100FC00000D16BE6524452458041641840422418D7
:100FD0001700230200D4FDE6774B66461C405DE611
:100FE000250050460543002ECFD1002D4FD10C00D7
:100FF000144300D1A0E00C00170098464EE6664668
:101000000024002785E61F000800203FF840070065
:10101000202B00D18EE04020C31A99400A43511E74
:101020008A410021174392E6002E14D12600504633
:10103000064362D0DB43002B5CD187189742924174
:1010400064185242A418664687E650462043441E60
:10105000A041002460E7574EB4454ED080263604A8
:101060005B423443382B00DD7FE01F2B00DD8BE03B
:10107000202627005046F61AB740D840074350466E
:10108000B040461EB0410743DC40BF18D6E70D0014
:10109000154300D102E65046801A8245BF41651AC9
:1010A0007F42ED1B8446280200D48DE65046171A75
:1010B000BA4292410C1B5242A41A9846EEE50D002A
:1010C000154300D16BE750466707C00807438020EF
:1010D000E4080003044207D0CD08054204D12C00E7
:1010E0009846D70849070F437B0FE4001C43FF00D5
:1010F000304ED3E52F4EB445B4D10C0017006646F0
:10110000CCE500270024E8E5002B39D00B00134381
:1011100000D144E7C008670707438020E4080003C4
:101120000442E1D0CB080342DED1D70849070F4380
:101130001C00D9E7002171E700250027E9E52E0012
:101140002700203EF740202D2FD04026751BAC40B5
:1011500050462043441EA04100243843DCE680244E
:1011600000252403134E0027D3E5504620430700F3
:10117000781E87410024BF1860E70C0017008DE53A
:101180000C0017000B4E89E51E002700203EF7409B
:10119000202B0CD04026F31A9C4050462043441E7E
:1011A000A04107430024BF1848E70024D0E70024EB
:1011B000F3E7C046FF070000FFFF7FFF30B5134D88
:1011C0000A034B00120B5B0DC90F0024AB4210DD6C
:1011D0000F4CA3420FDC80240E4D64032243ED1A12
:1011E0001F2D0BDD0C48C31ADA405442002900D1F0
:1011F0001400200030BD094BCC18FAE7084CE84039
:10120000A44663449A400243EFE7C046FE03000051
:101210001D0400003304000013040000FFFFFF7FE3
:10122000EDFBFFFF4100090E4B1C70B5DBB246021F
:10123000750AC40F012B14DDE0239B006D07360BEC
:10124000CB1800210A0D280012051C4D32435B0506
:101250002A405B0813435B00E4075B082343190043
:1012600070BD002914D1002D1ED0280000F06AF8AE
:101270000A281CDC0B232A001B1ADA400300153352
:101280009D400F4B12031B1A5B05160B5B0DD8E735
:10129000002D06D0320B802636036D071643094B0E
:1012A000CFE7084B0026CCE700230026C9E7030060
:1012B0002A000B3B9A400025E3E7C046FFFF0F8062
:1012C00089030000FF0700008446101C62468C461C
:1012D000191C634600E0C0461FB500F0EFF8002877
:1012E00001D40021C8421FBD10B500F049F84042AA
:1012F000013010BD10B500F0E1F8002801DB00203E
:1013000010BD012010BDC04610B500F0D7F8002870
:1013100001DD002010BD012010BDC04610B500F059
:1013200069F8002801DC002010BD012010BDC04676
:1013300010B500F05FF8002801DA002010BD012090
:1013400010BDC0461C2101231B04984201D3000C90
:1013500010391B0A984201D3000A08391B09984228
:1013600001D30009043902A2105C40187047C0463E
:10137000040302020101010100000000000000005E
:10138000F0B54F464646D6465C00C0B51F03DB0F9E
:101390009A46174B0E034D0084468046360B6D0D62
:1013A000C90F91463F0B640D01209D4208D09C421D
:1013B00001D0A5420BD01CBC90469946A246F0BD78
:1013C00063463343F7D1AC42F5D13A43F3D1012020
:1013D000BE42F0D1C845EED1514507D0002DEAD12B
:1013E00063461E433000461EB041E4E70020E2E7BA
:1013F000FF070000F0B54546DE4657464E46E0B5CD
:101400001F033D0B2C4F0E034C00AB465D00844682
:10141000360B640DC90F90466D0DDB0FBC422AD010
:10142000254FBD422DD0002C0FD1304307008146FF
:1014300078427841C0B2002D17D15F463A4314D1AB
:101440004B460020002B0AD006E0002D02D1584662
:10145000024301D0994218D04842012108433CBCC4
:1014600090469946A246AB46F0BD0028F2D0012036
:10147000013B1843F3E737000743D1D00220404235
:10148000EDE75F461743CED0F8E7AC42E4DC03DA81
:10149000481E01210843E2E75E45DDD806D0002062
:1014A0005E45DCD20123481E1843D8E7C445D3D893
:1014B0000020C445F6D3D2E7FF070000F0B54E4642
:1014C0004546DE4657465C00E0B51F03DB0F9946F4
:1014D0002A4B0E034D00C90F8446360B6D0D8B460B
:1014E00090463F0B640D9D4220D0244B9C4222D05D
:1014F000002D12D1304343424341DBB2002C1FD0B8
:10150000002B0CD04B460120013B034318003CBC90
:1015100090469946A246AB46F0BD002C16D0CB456E
:1015200017D05B46594201230B43EFE731000223FA
:101530000143EBD1D9E7390002231143E6D1D7E7C4
:101540003A43DDD100230028E0D0EAE73A43E6D170
:10155000E7E7A542E5DC05DBBE42E2D807D0002381
:10156000BE42D3D25946012301390B43CEE7C445CD
:10157000D7D80023C445F5D3C8E7C046FF0700000D
:1015800080B500AF074B074A126840210A431A6032
:10159000002000F009F805F0DFFC00231800BD462C
:1015A00080BDC0460020024080B582B000AF7860A8
:1015B0000B4B1A68FA2399001000FEF7A5FD0300F3
:1015C000180000F0C5FD796801235B420022180075
:1015D00000F098FD00231800BD4602B080BDC04653
:1015E0000400002080B500AF034B1B685A1C024B5F
:1015F0001A60C046BD4680BD8004002080B500AFA3
:10160000024B1B681800BD4680BDC0468004002008
:1016100080B584B000AF78600023FB60FFF7EEFF79
:101620000300FB60C046FFF7E9FF0200FB68D21A27
:101630007B689A42F7D3C046BD4604B080BD000027
:1016400080B500AF044B044A126802218A431A6035
:10165000C046BD4680BDC04610E000E080B582B007
:1016600000AF78607B68002B01D1012353E17B68D8
:101670009B6D002B0AD17B680022DA657B685422BF
:10168000002199547B68180000F056F97B689B6D27
:101690001022134005D17B681B689B68042213400D
:1016A0000BD07B689B6D10221A437B689A657B6820
:1016B00054220021995401232DE17B689B6D984AA7
:1016C000134002221A437B689A657B681B689B68FB
:1016D00003221340012B08D17B681B681B68012281
:1016E0001340012B01D1012300E00023002B49D13D
:1016F0007B685A68C0231B069A420BD07B685A68E5
:101700008023DB059A4205D07B685A6880231B063C
:101710009A4211D17B681B687A681268126992003C
:1017200092081A617B681B687A68126811697A6886
:1017300052680A431A6114E07B681B687A68126871
:101740001269920092081A61764B764A12687649BD
:101750000A401A60734A734B19687B685B680B43D5
:1017600013607B681B687A681268D26818218A4304
:10177000DA607B681B687A681268D1687A68926858
:101780000A43DA60674B674A126868490A401A6080
:10179000644A644B19687B689B6B5B060B43136060
:1017A0007B681B689A6880235B05134008D17B68BF
:1017B0001B687A6812689268802149050A439A601A
:1017C0007B681B687A681268D26859490A40DA60F7
:1017D0007B681B687A681268D1687A68D0687A6812
:1017E0001269022A01D1042200E0002210437A6823
:1017F000126A520310437A68126B520010437A68DF
:10180000526B10437A689269920310437A68D269E6
:10181000D20302430A43DA607B689A6AC223FF3329
:101820009A420BD07B681B687A681268D1687A6824
:10183000906A7A68D26A02430A43DA607B685B6A1C
:10184000012B19D17B681B6A002B09D17B681B68AF
:101850007A681268D268802149020A43DA600BE094
:101860007B689B6D20221A437B689A657B68DB6DE1
:1018700001221A437B68DA657B681B6C012B1FD140
:101880007B681B687A68126812692A490A401A61E3
:101890007B681B687A68126811697A68506C7A688C
:1018A000926C10437A68D26C02430A431A617B68D7
:1018B0001B687A681268126901210A431A610DE0F7
:1018C0007B681B681B690122134007D07B681B687B
:1018D0007A681268126901218A431A617B681B6861
:1018E0007A681268526907218A435A617B681B68CB
:1018F0007A68126851697A68D26B0A435A617B68C8
:101900000022DA657B689B6D0322934301221A4310
:101910007B689A6500231800BD4602B080BDC046B2
:10192000FDFEFFFF08270140FFFFC3FFFFFFFFFD94
:101930001902FEFF03FCFFFF80B582B000AF7860A4
:10194000C046BD4602B080BD90B587B000AFF8601C
:10195000B9607A601723FB1800221A70FB681B68B5
:101960009B68042213405ED1FB6854229B5C012BD0
:1019700001D102235EE0FB68542201219954FB68E7
:10198000DB69012B07D01723FC18FB68180000F057
:101990006BF9030023701723FB181B78002B46D12B
:1019A000FB689B6D254A1340802252001A43FB6856
:1019B0009A65FB680022DA65FB685422002199547D
:1019C000FB681B6D1E4ADA62FB681B6D1D4A1A63B9
:1019D000FB681B6D1C4A5A63FB681B681C221A605B
:1019E000FB681B68FA681268526810210A435A6043
:1019F000FB681B68FA681268D26801210A43DA6042
:101A0000FB68186DFB681B6840331900BA687B6877
:101A100000F0BEFCFB681B68FA681268926804213B
:101A20000A439A6003E01723FB1802221A70172357
:101A3000FB181B781800BD4607B090BDFEF0FFFFF5
:101A4000711E0008251F0008431F000890B585B0CF
:101A500000AF78600F23FB1800221A707B685422B5
:101A60009B5C012B01D102235AE07B6854220121A7
:101A700099540F23FC187B68180000F0B4F9030098
:101A800023700F23FB181B78002B42D17B681B6847
:101A90007A681268D26801218A43DA607B681B6D1C
:101AA0000F22BC18180000F0BCFC030023700F23A9
:101AB000FB181B78002B05D07B689B6D40221A43D6
:101AC0007B689A657B681B687A6812685268102187
:101AD0008A435A600F23FB181B78002B08D10F2371
:101AE000FC187B68180000F01FF90300237003E066
:101AF0007B68180000F018F90F23FB181B78002BE7
:101B000007D17B689B6D084A134001221A437B680A
:101B10009A657B685422002199540F23FB181B7887
:101B20001800BD4605B090BDFEFEFFFF80B582B037
:101B300000AF7860C046BD4602B080BD80B582B0BF
:101B400000AF7860C046BD4602B080BD80B582B0AF
:101B500000AF7860C046BD4602B080BD80B582B09F
:101B600000AF786039607B6854229B5C012B01D107
:101B700002236CE07B685422012199547B681B6826
:101B80009B68042213400BD07B689B6D20221A4374
:101B90007B689A657B68542200219954012356E0A2
:101BA0003B685B682C4A934228D07B681B687A6844
:101BB0001268916A3A6812685203520B0A439A6299
:101BC0003B681A688023DB02134009D0234B234A69
:101BD0001268802109040A431A600A2000F0CCF937
:101BE0003B681A6880239B0213402BD01B4B1B4A77
:101BF00012688021C9030A431A6023E07B681B68CE
:101C00007A681268916A3A6812685203520BD2439A
:101C10000A409A623B681A688023DB02134005D0B1
:101C20000E4B0E4A12680E490A401A603B681A6849
:101C300080239B02134005D0084B084A12680949CB
:101C40000A401A607B68542200219954002318002E
:101C5000BD4602B080BDC04601100000082701400B
:101C6000FFFF7FFFFFFFBFFF80B584B000AF78604C
:101C70000023FB607B681B689B6803221340012BD9
:101C800008D17B681B681B6801221340012B01D11E
:101C9000012300E00023002B3FD17B681B689B6879
:101CA000204A13400DD07B689B6D10221A437B683D
:101CB0009A657B68DB6D01221A437B68DA65012334
:101CC0002CE07B681B687A681268926801210A43DD
:101CD0009A60012000F050F9FFF790FC0300FB60D0
:101CE00014E0FFF78BFC0200FB68D31A0A2B0DD916
:101CF0007B689B6D10221A437B689A657B68DB6D5D
:101D000001221A437B68DA65012307E07B681B68C0
:101D10001B6801221340012BE3D100231800BD46AC
:101D200004B080BD1700008080B584B000AF78603B
:101D30000023FB607B681B689B6803221340012B18
:101D400008D17B681B681B6801221340012B01D15D
:101D5000012300E00023002B40D07B681B689B68B8
:101D600005221340012B10D17B681B687A6812682A
:101D7000926802210A439A607B681B6803221A60FA
:101D8000FFF73CFC0300FB6022E07B689B6D1022A8
:101D90001A437B689A657B68DB6D01221A437B6876
:101DA000DA6501231BE0FFF729FC0200FB68D31A68
:101DB0000A2B0DD97B689B6D10221A437B689A65AC
:101DC0007B68DB6D01221A437B68DA65012306E03C
:101DD0007B681B689B6801221340E4D10023180034
:101DE000BD4604B080BD80B584B000AF78600023EC
:101DF000FB607B681B689B680422134033D07B68C0
:101E00001B689B68042213400DD07B681B689B688D
:101E10000222134007D17B681B687A6812689268B7
:101E200010210A439A60FFF7E9FB0300FB6014E00E
:101E3000FFF7E4FB0200FB68D31A0A2B0DD97B687D
:101E40009B6D10221A437B689A657B68DB6D0122CB
:101E50001A437B68DA65012306E07B681B689B6890
:101E600004221340E4D100231800BD4604B080BD15
:101E700080B584B000AF78607B689B6AFB60FB68CC
:101E80009B6D5022134040D1FB689B6D80229200D5
:101E90001A43FB689A65FB681B68DA68C0231B015C
:101EA00013402DD1FB681B6A002B29D1FB681B68EE
:101EB0001B6808221340082B22D1FB681B689B6813
:101EC0000422134010D1FB681B68FA68126852683C
:101ED0000C218A435A60FB689B6D114A1340012212
:101EE0001A43FB689A650BE0FB689B6D20221A433E
:101EF000FB689A65FB68DB6D01221A43FB68DA65B3
:101F0000FB681800FFF712FE05E0FB681B6D5B6BBA
:101F10007A6810009847C046BD4604B080BDC046F0
:101F2000FEFEFFFF80B584B000AF78607B689B6ADF
:101F3000FB60FB681800FFF701FEC046BD4604B019
:101F400080BD80B584B000AF78607B689B6AFB6021
:101F5000FB689B6D40221A43FB689A65FB68DB6D4A
:101F600004221A43FB68DA65FB681800FFF7EEFDF0
:101F7000C046BD4604B080BD80B584B000AF786077
:101F80000A4B1B680A491800FEF7BEF803001A0046
:101F90007B685343FB6002E0FB68013BFB60FB682E
:101FA000002BF9D1C046BD4604B080BD040000201E
:101FB00040420F0080B582B000AF0200FB1D1A70D6
:101FC000064BFA1D127811001F220A400121914090
:101FD0000A001A60C046BD4602B080BD00E100E0C4
:101FE000B0B582B000AF02003960FB1D1A70FB1D56
:101FF0001B787F2B32D92F4CFB1D1B781A000F2327
:102000001340083B99082B4AFB1D1B7818000F232F
:102010000340083B9B0806339B00D31804331B681E
:10202000FA1D1278100003220240D200FF209040D7
:102030000200D2431A403B689B01FF201840FB1D61
:102040001B781D0003232B40DB00984003001A433C
:102050008B1D9B00E31804331A6027E0164CFB1D10
:102060001B785BB29B081449FA1D127852B2920891
:10207000C03292005258F91D09780800032101402E
:10208000C900FF2088400100C94311403A6892010D
:10209000FF201040FA1D1278150003222A40D200BA
:1020A000904002000A43C0339B001A51C046BD460F
:1020B00002B0B0BD00ED00E000E100E080B582B00C
:1020C00000AF78607B68013B0C4A934201D9012341
:1020D00010E00B4B7A68013A5A6001235B420321FE
:1020E0001800FFF77DFF064B00229A60044B072281
:1020F0001A6000231800BD4602B080BDFFFFFF003C
:1021000010E000E080B584B000AFB9607A600F23C2
:10211000FB18021C1A70BA680F23FB181B785BB2FD
:1021200011001800FFF75CFFC046BD4604B080BD3B
:1021300080B582B000AF0200FB1D1A70FB1D1B783A
:102140005BB21800FFF736FFC046BD4602B080BD47
:1021500080B582B000AF78607B681800FFF7AEFFF3
:1021600003001800BD4602B080BD000080B582B0FB
:1021700000AF78607B68042B06D1084B074A1268D1
:1021800004210A431A6005E0044B044A1268042142
:102190008A431A60C046BD4602B080BD10E000E030
:1021A00080B500AF00F003F8C046BD4680BD80B5E5
:1021B00000AFC046BD4680BD80B584B000AF78603A
:1021C0000023FB607B68002B01D10123BFE07B680B
:1021D00025229B5CDBB2002B03D17B6824220021EB
:1021E00099547B682522022199547B681B681B68DF
:1021F000FB60FB68584A1340FB607B689A687B6809
:10220000DB681A437B681B691A437B685B691A4366
:102210007B689B691A437B68DB691A437B681B6A8E
:102220001343FA681343FB607B681B68FA681A6003
:102230007B681B68494A93420DD1494B484A126852
:102240000F218A431A60464A454B19687B685B68D0
:102250000B43136076E07B681B68424A93420ED1C1
:102260003F4B3F4A1268F0218A431A603C4A3C4B7C
:1022700019687B685B681B010B43136062E07B6835
:102280001B68394A93420ED1354B354A126837499B
:102290000A401A60324A324B19687B685B681B023D
:1022A0000B4313604EE07B681B68314A93420ED1AA
:1022B0002B4B2B4A12682F490A401A60284A284B98
:1022C00019687B685B681B030B4313603AE07B680B
:1022D0001B68294A93420ED1214B214A1268274993
:1022E0000A401A601E4A1E4B19687B685B681B0413
:1022F0000B43136026E07B681B68214A93420ED192
:10230000174B174A12681F490A401A60144A144BA7
:1023100019687B685B681B050B43136012E07B68E0
:102320001B68194A93420DD10D4B0D4A126817498B
:102330000A401A600A4A0A4B19687B685B681B06E8
:102340000B4313607B682522012199540023180058
:10235000BD4604B080BDC0460FC0FFFF080002406C
:10236000A80002401C00024030000240FFF0FFFFC6
:1023700044000240FF0FFFFF58000240FFFFF0FF44
:102380006C000240FFFF0FFF80000240FFFFFFF0E4
:1023900080B584B000AFF860B9607A603B60FB68DC
:1023A00024229B5C012B01D1022336E0FB6824220E
:1023B00001219954FB68252202219954FB681B686E
:1023C000FA681268126801218A431A603B687A68C9
:1023D000B968F86800F04EFAFB681B68FA68126882
:1023E000126802210A431A60FB681B68FA681268C7
:1023F000126804210A431A60FB681B68FA681268B5
:10240000126808210A431A60FB681B68FA681268A0
:10241000126801210A431A6000231800BD4604B067
:1024200080BD80B584B000AF78600023FB607B681E
:102430001B687A681268126801218A431A60FFF7E4
:10244000DDF80300FB6018E0FFF7D8F80200FB6836
:10245000D21AFA239B009A420FD97B68DB6B2022A9
:102460001A437B68DA637B682422002199547B68D5
:1024700025220321995403230EE07B681B681B6807
:1024800001221340E0D17B682422002199547B680B
:1024900025220121995400231800BD4604B080BDB7
:1024A00080B582B000AF7860B04B1A687B681B685B
:1024B0001900AF4B99422ED07B681B681900AD4BB9
:1024C000994226D07B681B681900AB4B99421DD0FE
:1024D0007B681B681900A94B994214D07B681B6864
:1024E0001900A74B99420BD07B681B681900A54BBC
:1024F000994202D180231B040EE080231B050BE0D0
:1025000080231B0308E080231B0205E080231B01BE
:1025100002E0802300E0082313405CD07B681B6846
:102520001B680822134056D07B681B687A681268C3
:10253000126808218A431A608C4A7B681B6819005C
:102540008B4B99422ED07B681B681900894B9942AE
:1025500026D07B681B681900874B99421DD07B6889
:102560001B681900854B994214D07B681B681900C1
:10257000834B99420BD07B681B681900814B9942B1
:1025800002D180231B040EE080231B050BE0802377
:102590001B0308E080231B0205E080231B0102E0EF
:1025A000802300E0082353607B68DB6B01221A4321
:1025B0007B68DA637B682522042199547B68242296
:1025C000002199547B685B6B002B04D07B685B6BAC
:1025D0007A6810009847654B1A687B681B68190079
:1025E000634B99422ED07B681B681900614B99425E
:1025F00026D07B681B6819005F4B99421DD07B6811
:102600001B6819005D4B994214D07B681B68190048
:102610005B4B99420BD07B681B681900594B994260
:1026200002D18023DB030EE08023DB040BE0802358
:10263000DB0208E08023DB0105E08023DB0002E011
:10264000402300E00423134058D07B681B681B68BC
:102650000422134052D07B681B681B682022134061
:1026600007D17B681B687A681268126804218A4364
:102670001A603E4A7B681B6819003D4B99422ED078
:102680007B681B6819003B4B994226D07B681B680E
:102690001900394B99421DD07B681B681900374BD4
:1026A000994214D07B681B681900354B99420BD0B6
:1026B0007B681B681900334B994202D18023DB03EE
:1026C0000EE08023DB040BE08023DB0208E08023A4
:1026D000DB0105E08023DB0002E0402300E004236F
:1026E00053607B682522052199547B681B6B002B66
:1026F00004D07B681B6B7A68100098471B4B1A68E4
:102700007B681B6819001A4B99423DD07B681B6897
:102710001900184B994226D07B681B681900164B8C
:1027200099421DD07B681B681900144B994214D044
:102730007B681B681900124B99420BD07B681B68A1
:102740001900104B994202D180239B031DE0802386
:102750009B041AE080239B0217E080239B0114E076
:1027600080239B0011E020230FE0C04600000240C0
:10277000080002401C0002403000024044000240B9
:10278000580002406C0002400223134060D07B6876
:102790001B681B68022213405AD07B681B681B68A9
:1027A0002022134007D17B681B687A681268126880
:1027B00002218A431A60284A7B681B681900274B4C
:1027C00099422ED07B681B681900254B994226D070
:1027D0007B681B681900234B99421DD07B681B68DE
:1027E0001900214B994214D07B681B6819001F4BBC
:1027F00099420BD07B681B6819001D4B994202D18E
:1028000080239B030EE080239B040BE080239B022C
:1028100008E080239B0105E080239B0002E0202349
:1028200000E0022353607B68DA6B7B68DA637B68C5
:102830002522012199547B682422002199547B6828
:10284000DB6A002B04D07B68DB6A7A68100098474B
:10285000C046BD4602B080BD0000024008000240F4
:102860001C00024030000240440002405800024078
:102870006C00024080B584B000AFF860B9607A6047
:102880003B60FB681B683A685A60FB689B68102BCA
:1028900008D1FB681B687A689A60FB681B68BA6895
:1028A000DA6007E0FB681B68BA689A60FB681B681F
:1028B0007A68DA60C046BD4604B080BD80B586B097
:1028C00000AF7860396000237B610023FB60002348
:1028D0003B614FE13B681B6801217A6991400A0026
:1028E0001340FB60FB68002B00D140E13B685B6854
:1028F000022B03D03B685B68122B23D17B69DA087B
:102900007B6808329200D3583B617B6907221340F1
:102910009B000F229A401300DA433B6913403B614E
:102920003B681A697B6907210B409B009A401300A2
:102930003A6913433B617B69DA087B68083292008D
:102940003969D1503B685B68012B0BD03B685B68F1
:10295000022B07D03B685B68112B03D03B685B6898
:10296000122B30D17B689B683B617B695B00032243
:102970009A401300DA433B6913403B613B68DA68D5
:102980007B695B009A4013003A6913433B617B68A3
:102990003A699A607B685B683B6101227B699A4077
:1029A0001300DA433B6913403B613B685B681B09DA
:1029B00001221A407B699A4013003A6913433B6134
:1029C0007B683A695A607B681B683B617B695B0086
:1029D00003229A401300DA433B6913403B613B6892
:1029E0005B6803221A407B695B009A4013003A69D6
:1029F00013433B617B683A691A607B68DB683B6123
:102A00007B695B0003229A401300DA433B69134061
:102A10003B613B689A687B695B009A4013003A69A6
:102A200013433B617B683A69DA603B685A688023EC
:102A30005B05134000D19AE0544B544A526B01217C
:102A40000A435A63524A7B699B0802339B009B5896
:102A50003B617B69032213409B000F229A401300C5
:102A6000DA433B6913403B617A68A023DB059A4255
:102A700019D07B68474A934213D07B68464A9342F9
:102A80000DD07B68454A934207D07B68444A934205
:102A900001D1052308E0062306E0032304E0022316
:102AA00002E0012300E000237A6903210A4092003A
:102AB00093403A6913433B6135497B699B08023374
:102AC0009B003A695A50374B1B683B61FB68DA43FD
:102AD0003B6913403B613B685A6880235B021340AB
:102AE00003D03A69FB6813433B612E4B3A691A6085
:102AF0002C4B5B683B61FB68DA433B6913403B61ED
:102B00003B685A6880239B02134003D03A69FB68F4
:102B100013433B61234B3A695A60224B9B683B61EC
:102B2000FB68DA433B6913403B613B685A6880238A
:102B30005B03134003D03A69FB6813433B61194BB5
:102B40003A699A60174BDB683B61FB68DA433B6983
:102B500013403B613B685A6880239B03134003D0BA
:102B60003A69FB6813433B610E4B3A69DA607B6953
:102B700001337B613B681A687B69DA40131E00D021
:102B8000A8E6C046BD4606B080BDC0460010024063
:102B9000000001400004005000080050000C0050EC
:102BA000001C00500004014080B582B000AF786086
:102BB00008001100BB1C021C1A807B1C0A1C1A7026
:102BC0007B1C1B78002B04D0BB1C1A887B689A6185
:102BD00003E0BB1C1A887B689A62C046BD4602B0FF
:102BE00080BD000080B500AF074B074A1268012185
:102BF0000A431A60044B044A12688021C9010A433F
:102C00001A60C046BD4680BD0070004080B582B0ED
:102C100000AF00237B60174B164A126816490A4022
:102C20001A60144B134A126801218A431A60134B2D
:102C30001B6813491800FDF767FA03001A003223D6
:102C400053437B6002E07B68013B7B607B68002B29
:102C500004D0084B5B6820221340F4D1054B5B681D
:102C60002022134001D0032300E000231800BD46BA
:102C700002B080BD00700040FFBFFFFF04000020D5
:102C800040420F0080B582B000AF1F4B1E4A126851
:102C9000802149000A431A601B4B1B4AD26803215A
:102CA0008A43DA60184B184A126818490A401A60B9
:102CB000154B1A6880235B0213407B607B68124BC4
:102CC000114A126812490A401A600F4B0022DA605A
:102CD0000D4B0D4A52680F490A40A02109020A43D0
:102CE0005A60094B084A52680B490A408021490141
:102CF0000A435A60044B00221A61084B084A1A60C2
:102D0000C046BD4602B080BD00100240F4FFF6FE92
:102D1000FFFFFBFFFF1FFF00FFE0FFFF040000209D
:102D200068FF1F0080B586B000AF786000233B616C
:102D30007B681B680122134000D187E0C04BDB6831
:102D40000C221340082B0ED0BD4BDB680C22134025
:102D50000C2B16D1BA4BDA6880235B021A40802311
:102D60005B029A420DD1B64B1A6880239B02134036
:102D700000D16AE07B685B68002B66D1012300F01C
:102D800069FB7B685A6880235B029A4207D1AC4B8F
:102D9000AB4A1268802149020A431A6027E07B6827
:102DA0005A68A023DB029A420ED1A54BA44A1268AE
:102DB0008021C9020A431A60A14BA14A12688021EE
:102DC00049020A431A6012E09D4B9D4A12689D49D0
:102DD0000A401A609A4B1A6880235B021340FB601A
:102DE000FB68974B964A126897490A401A607B68BD
:102DF0005B68002B14D0FEF701FC03003B6108E088
:102E0000FEF7FCFB02003B69D31A642B01D90323B4
:102E100020E38B4B1A6880239B021340F0D015E00F
:102E2000FEF7ECFB03003B6108E0FEF7E7FB020066
:102E30003B69D31A642B01D903230BE3804B1A6837
:102E400080239B021340F0D100E0C0467B681B68E2
:102E50000222134000D16CE0794BDB680C22134056
:102E6000042B0BD0764BDB680C2213400C2B1BD1B0
:102E7000734BDA6880235B02134015D1704B1B68DB
:102E80000422134005D07B68DB68012B01D00123AD
:102E9000E0E26B4A6A4B5B686C4919407B681B69CE
:102EA0001B020B43536044E07B68DB68002B27D098
:102EB000634A634B1B6809218B4319007B68DB68FD
:102EC0000B431360FEF79AFB03003B6108E0FEF73B
:102ED00095FB02003B69D31A022B01D90323B9E207
:102EE000574B1B6804221340F1D0554A544B5B6882
:102EF000564919407B681B691B020B43536018E05D
:102F00004F4B4F4A126801218A431A60FEF776FB45
:102F100003003B6108E0FEF771FB02003B69D31A36
:102F2000022B01D9032395E2454B1B680422134071
:102F3000F1D17B681B681022134000D1C2E0404BE6
:102F4000DB680C22134062D13D4B1A6880239B0042
:102F5000134005D07B68DB69002B01D1012379E2A6
:102F60007B685A6A364B5968E0231B020B409A4231
:102F70001CD97B685B6A180000F018FC031E01D0A6
:102F8000012367E22E4A2E4B5B68314919407B686A
:102F90005B6A0B4353602A4A294B5B681B02190A80
:102FA0007B681B6A1B060B4353601BE0244A244BBF
:102FB0005B68274919407B685B6A0B435360204A72
:102FC0001F4B5B681B02190A7B681B6A1B060B43BD
:102FD00053607B685B6A180000F0E8FB031E01D0B9
:102FE000012337E27B685B6A5B0B013380221202AC
:102FF0009A40134BDB681B090F210B401549CB5C32
:10300000DA40154B1A600020FEF7CEFA5AE07B68D2
:10301000DB69002B3CD00A4B094A12688021490029
:103020000A431A60FEF7EAFA03003B6116E0FEF776
:10303000E5FA02003B69D31A022B0FD9032309E2F8
:1030400000100240FFFFFEFFFFFFFBFFFFE0FFFF5E
:10305000FF1FFFFF2C78000804000020C74B1A68F0
:1030600080239B001340E2D0C44AC44B5B68C44930
:1030700019407B685B6A0B435360C04ABF4B5B6877
:103080001B02190A7B681B6A1B060B43536019E07D
:10309000BA4BBA4A1268BB490A401A60FEF7AEFA48
:1030A00003003B6108E0FEF7A9FA02003B69D31A6E
:1030B000022B01D90323CDE1B04B1A6880239B007A
:1030C0001340F0D17B681B680822134036D07B6820
:1030D0005B69002B19D0A94BA84A126D01210A4344
:1030E0001A65FEF78BFA03003B6108E0FEF786FAEB
:1030F00002003B69D31A022B01D90323AAE19F4B9B
:103100001B6D02221340F1D018E09C4B9B4A126DBC
:1031100001218A431A65FEF771FA03003B6108E05A
:10312000FEF76CFA02003B69D31A022B01D9032384
:1031300090E1924B1B6D02221340F1D17B681B681A
:103140000422134000D1AFE01723FB1800221A70AD
:103150008A4B9A6B80235B0513400AD1874B874AC1
:10316000926B802149050A439A631723FB180122B9
:103170001A70854B1A6880235B0013401AD1824B6A
:10318000814A1268802149000A431A60FEF736FA24
:1031900003003B6108E0FEF731FA02003B69D31AF5
:1031A000642B01D9032355E1774B1A6880235B0018
:1031B0001340F0D07B689A6880235B009A4207D165
:1031C0006E4B6E4A126D802149000A431A6531E048
:1031D0007B689B68002B0CD1684B684A126D69496B
:1031E0000A401A65654B654A126D68490A401A65BE
:1031F00020E07B689A68A023DB009A420ED15F4BE7
:103200005E4A126D8021C9000A431A655B4B5B4A16
:10321000126D802149000A431A650BE0574B574A4B
:10322000126D58490A401A65544B544A126D574959
:103230000A401A657B689B68002B15D0FEF7DEF903
:1032400003003B6109E0FEF7D9F902003B69D31A9C
:103250004F4A934201D90323FCE0484B1A6D802367
:103260009B001340EFD014E0FEF7C8F903003B6168
:1032700009E0FEF7C3F902003B69D31A444A9342BE
:1032800001D90323E6E03D4B1A6D80239B001340D8
:10329000EFD11723FB181B78012B05D1374B374A89
:1032A000926B3C490A409A637B681B68202213405A
:1032B00049D07B689B69002B26D0304B2F4A9268FF
:1032C00001210A439A602D4B2C4A526B01210A437B
:1032D0005A63314B304A126A802189010A431A62CB
:1032E000FEF78CF903003B6108E0FEF787F9020066
:1032F0003B69D31A022B01D90323ABE01F4B9B6818
:1033000002221340F1D01EE01C4B1C4A926801219E
:103310008A439A60204B204A126A20490A401A6266
:10332000FEF76CF903003B6108E0FEF767F9020065
:103330003B69D31A022B01D903238BE00F4B9B6807
:1033400002221340F1D17B689B6A002B00D180E000
:103350000A4BDB680C2213400C2B00D177E07B6812
:103360009B6A022B58D1054B044A12680C490A404B
:103370001A60FEF743F903003B611CE000100240B5
:10338000FF1FFFFFFFFEFFFF00700040FFFBFFFF7E
:1033900088130000FFFFFFEF00000140FFDFFFFF89
:1033A000FFFFFFFEFEF72AF902003B69D31A022B4A
:1033B00001D903234EE0294B1A6880239B04134054
:1033C000F0D1264A254BDB68254919407B68D86A2D
:1033D0007B681B6B18437B685B6B03430B43D360B9
:1033E0001E4B1E4A1268802149040A431A60FEF7E8
:1033F00005F903003B6108E0FEF700F902003B69B4
:10340000D31A022B01D9032324E0144B1A6880231A
:103410009B041340F0D01CE0104B104A1268114975
:103420000A401A60FEF7EAF803003B6108E0FEF785
:10343000E5F802003B69D31A022B01D9032309E006
:10344000064B1A6880239B041340F0D101E001234E
:1034500000E000231800BD4606B080BD0010024009
:10346000FFFF02FFFFFFFFFE80B584B000AF786072
:1034700039600023FB60824B1B6801221A403B68C5
:103480009A4211D27E4B7E4A126801218A43110072
:103490003A680A431A607A4B1B6801221A403B685B
:1034A0009A4201D00123E6E07B681B6802221340A8
:1034B00009D0744A734BDB68F0218B4319007B6899
:1034C0009B680B43D3607B681B680122134000D1CB
:1034D00089E07B685B68022B07D16A4B1A688023FE
:1034E0009B02134020D10123C5E07B685B68032B5E
:1034F00007D1644B1A6880239B04134014D1012325
:10350000B9E07B685B68012B06D15E4B1B68042227
:10351000134009D10123AEE05A4B1A6880239B0067
:10352000134001D10123A6E0564A564BDB68032124
:103530008B4319007B685B680B43D360FEF75EF832
:103540000300FB607B685B68022B11D109E0FEF78A
:1035500055F80200FB68D31A4B4A934201D9032362
:1035600089E0484BDB680C221340082BEFD13AE08E
:103570007B685B68032B11D109E0FEF73FF802007E
:10358000FB68D31A404A934201D9032373E03D4BB1
:10359000DB680C2213400C2BEFD124E07B685B68C6
:1035A000012B1BD109E0FEF729F80200FB68D31AB2
:1035B000354A934201D903235DE0324BDB680C228C
:1035C0001340042BEFD10EE0FEF718F80200FB6861
:1035D000D31A2D4A934201D903234CE0294BDB68CF
:1035E0000C221340F0D1264B1B6801221A403B6885
:1035F0009A4211D9224B224A126801218A431100B2
:103600003A680A431A601E4B1B6801221A403B6845
:103610009A4201D001232EE07B681B6804221340EC
:1036200008D0184A174BDB68184919407B68DB68DB
:103630000B43D3607B681B680822134009D0114AF2
:10364000104BDB68124919407B681B69DB000B4398
:10365000D36000F023F801000A4BDB681B090F223E
:1036600013400C4AD35C0A00DA400B4B1A6000206E
:10367000FDF79AFF00231800BD4604B080BDC04688
:10368000002002400010024088130000FFF8FFFFF6
:10369000FFC7FFFF2C7800080400002080B586B02B
:1036A00000AF0023FB600023BB6000237B6000238E
:1036B0007B6100233B6000233B61324BDB68FB6096
:1036C000FB680C221340082B0ED00C2B0FD0042BC0
:1036D00045D12C4B1B681022134002D02A4B3B6172
:1036E0004BE02A4B3B6148E0294B3B6145E0FB68DE
:1036F0009B0C0F221340274AD35CBB60FB689B0DD9
:103700000322134001337B601E4BDA6880235B0287
:10371000134009D0BB681E4A534379681800FCF770
:10372000F3FC03007B6117E0164B1B68102213406B
:1037300009D0BB68144A534379681800FCF7E4FCCD
:1037400003007B6108E0BB68104A534379681800A6
:10375000FCF7DAFC03007B617B693B610DE0094B00
:103760005B685B0B072213403B603B6801338022A0
:1037700012029A4013003B61C0463B691800BD46E7
:1037800006B080BD0010024000093D000024F40096
:1037900000127A003C78000880B500AF024B1B682D
:1037A0001800BD4680BDC0460400002080B584B02E
:1037B00000AF78600023FB600023BB60234BDB6815
:1037C000F02213402BD1214B9A6B80235B051340D1
:1037D00006D01F4B1A68C0235B011340FB6012E048
:1037E0001A4B1A4A926B802149050A439A63184B77
:1037F0001A68C0235B011340FB60144B134A926BA1
:1038000014490A409A63FA68C0235B019A4206D1C0
:103810007A68C0231B029A4201D10123BB600E4B80
:103820000D4A126801218A431100BA680A431A60DE
:10383000094B1B6801221A40BB689A4201D0012340
:1038400000E000231800BD4604B080BD0010024017
:1038500000700040FFFFFFEF0020024080B582B003
:1038600000AF78607B68002B01D101231EE07B68EC
:1038700035229B5CDBB2002B07D17B683422002110
:1038800099547B68180003F091FB7B683522022174
:1038900099547B681A687B6804331900100000F0A3
:1038A00001F97B6835220121995400231800BD4697
:1038B00002B080BD80B582B000AF786039607B68AF
:1038C0001B6839680122180000F060FA7B681B68E9
:1038D0007A681268126801210A431A6000231800EE
:1038E000BD4602B080BD000080B582B000AF7860F8
:1038F00039607B681B6839680022180000F046FABE
:103900007B681B681B6A0A4A134007D17B681B68E7
:103910007A681268126801218A431A607B6835222E
:103920000121995400231800BD4602B080BDC04655
:103930001111000080B584B000AFF860B9607A6002
:10394000FB6834229B5C012B01D10223A4E0FB68BD
:10395000342201219954FB683522022199547B6855
:10396000042B29D002D8002B05D08CE0082B46D0A0
:103970000C2B65D087E0FB681B68BA681100180043
:1039800000F0E8F8FB681B68FA6812689269082181
:103990000A439A61FB681B68FA68126892690421FD
:1039A0008A439A61FB681B68FA6812689169BA6871
:1039B000D2680A439A6166E0FB681B68BA68110026
:1039C000180000F009F9FB681B68FA681268926930
:1039D000802109010A439A61FB681B68FA68126832
:1039E00092692F490A409A61FB681B68FA6812685D
:1039F0009169BA68D26812020A439A6143E0FB688F
:103A00001B68BA681100180000F02EF9FB681B68EB
:103A1000FA681268D26908210A43DA61FB681B68F8
:103A2000FA681268D26904218A43DA61FB681B686C
:103A3000FA681268D169BA68D2680A43DA6122E08A
:103A4000FB681B68BA681100180000F053F9FB68A6
:103A50001B68FA681268D269802109010A43DA6199
:103A6000FB681B68FA681268D2690D490A40DA617E
:103A7000FB681B68FA681268D169BA68D2681202DA
:103A80000A43DA61C046FB68352201219954FB687C
:103A900034220021995400231800BD4604B080BD93
:103AA000FFFBFFFF80B584B000AF78603960002372
:103AB000FB607B681B68FB607A688023DB059A42A9
:103AC00007D07B68204A934203D07B681F4A934209
:103AD00001D1012300E00023002B08D0FB687022F5
:103AE0009343FB603B685B68FA681343FB607A684A
:103AF0008023DB059A4207D07B68134A934203D0A8
:103B00007B68124A934201D1012300E00023002B7D
:103B100008D0FB680E4A1340FB603B68DB68FA681C
:103B20001343FB607B68FA681A603B689A687B689D
:103B3000DA623B681A687B689A627B6801225A6184
:103B4000C046BD4604B080BD0008014000140140DD
:103B5000FFFCFFFF80B586B000AF786039600023BE
:103B60007B6100233B610023FB607B681B6A0122B1
:103B700093431A007B681A627B681B6A3B617B680F
:103B80005B68FB607B689B697B617B697022934308
:103B90007B617B69032293437B613B681B687A6985
:103BA00013437B613B69022293433B613B689B6803
:103BB0003A6913433B617B68FA685A607B687A69AB
:103BC0009A613B685A687B685A637B683A691A62F3
:103BD000C046BD4606B080BD80B586B000AF7860F7
:103BE000396000237B6100233B610023FB607B681D
:103BF0001B6A102293431A007B681A627B681B6A57
:103C00003B617B685B68FB607B689B697B617B6970
:103C1000134A13407B617B69124A13407B613B6806
:103C20001B681B027A6913437B613B692022934323
:103C30003B613B689B681B013A6913433B617B68AE
:103C4000FA685A607B687A699A613B685A687B684F
:103C50009A637B683A691A62C046BD4606B080BD69
:103C6000FF8FFFFFFFFCFFFF80B586B000AF7860DD
:103C7000396000237B6100233B610023FB607B688C
:103C80001B6A1A4A1A407B681A627B681B6A3B618E
:103C90007B685B68FB607B68DB697B617B697022AA
:103CA00093437B617B69032293437B613B681B6881
:103CB0007A6913437B613B690D4A13403B613B6862
:103CC0009B681B023A6913433B617B68FA685A6040
:103CD0007B687A69DA613B685A687B68DA637B687B
:103CE0003A691A62C046BD4606B080BDFFFEFFFFBE
:103CF000FFFDFFFF80B586B000AF7860396000231C
:103D00007B6100233B610023FB607B681B6A1B4ACD
:103D10001A407B681A627B681B6A3B617B685B6840
:103D2000FB607B68DB697B617B69154A13407B61C3
:103D30007B69144A13407B613B681B681B027A69EC
:103D400013437B613B69104A13403B613B689B68AE
:103D50001B033A6913433B617B68FA685A607B68CE
:103D60007A69DA613B685A687B681A647B683A69E9
:103D70001A62C046BD4606B080BDC046FFEFFFFFD9
:103D8000FF8FFFFFFFFCFFFFFFDFFFFF80B586B067
:103D900000AFF860B9607A6000237B610122BB68E4
:103DA0009A4013007B61FB681B6A7A69D2431A4010
:103DB000FB681A62FB681A6A7968BB6899400B0055
:103DC0001A43FB681A62C046BD4606B080BD90B576
:103DD00083B000AF78607B68002B01D1012374E0D1
:103DE0007B683C229B5CDBB2002B03D17B683D22CD
:103DF000002199547B683C22022199547B68180069
:103E000003F0EAF87B681B6801221A607B681B6874
:103E10007A68126811687A6850687A689268104304
:103E20007A681269520410437A68526910437A68BA
:103E3000926910437A68D26910437A68526A1043D3
:103E40007A68926A02430A431A607B68DB68012B36
:103E500008D17B681B687A68126812688021490261
:103E60000A431A607B681B687A68116B7A68526B28
:103E700011437A68926B0A43D2431A617B681B68CC
:103E80007A68116B7A68526B0A439A627B681B6886
:103E90007A68926B1A627B681C687B681B6B1800DF
:103EA00000F017F8030023637B681B687A681268C8
:103EB000526803218A435A607B681B6803229A6018
:103EC0007B683C220121995400231800BD4603B0B1
:103ED00090BD80B584B000AF78600023FB60002304
:103EE000BB6011E0BB689B000F229A4013007A6808
:103EF000134006D00122BB689A401300FA681343AE
:103F0000FB60BB680133BB60BB68072BEAD9FB6869
:103F10001800BD4604B080BD80B584B000AF7860A5
:103F2000104B7A685A60104B1B6810491800FCF758
:103F3000EBF803001A00FA239B00534348211800B2
:103F4000FCF7E2F803001A00064B1A610F23FB1876
:103F500000221A700F23FB181B781800BD4604B00E
:103F600080BDC046840400200400002040420F00B1
:103F700090B58BB000AFB9607A600F23FB18021CBC
:103F80001A702723FB1800221A70C84B59680F2398
:103F9000FB181A7813005B009B18DB00CB18BB6181
:103FA000BB695B683B62BB691B68FB610F23FB1845
:103FB0001B78002B01D0022373E12623FB1800227B
:103FC0001A7062E11623FB183A6A12881A80BB69DC
:103FD00099681623FB181A8813005B009B189B0036
:103FE000CB181B7818221340DBB2182B00D03FE10E
:103FF000BB6999681623FB181A8813005B009B188D
:104000009B00CB181A7801210A431A70FB691B78B0
:104010002422BC18180000F0FFF903002380BB69BC
:1040200099681623FB181A8813005B009B189B00E5
:10403000CA181423FB1852891A80BB699968162381
:10404000FB181A8813005B009B189B00CB182422D6
:10405000BA1812885A81964B1B882422BA181288E3
:104060009A4221D2BB6999681623FB181A8813005B
:104070005B009B189B00CB181A7806218A43111C01
:1040800004220A431A70BB6999681623FB181A8820
:1040900013005B009B189B00CB1800221A8127237A
:1040A000FB1802221A70E3E0814B5B882422BA18C5
:1040B00012889A421ED9BB6999681623FB181A8880
:1040C00013005B009B189B00CB181A7806210A434B
:1040D0001A70BB6999681623FB181A8813005B00D5
:1040E0009B189B00CB1800221A812723FB18022261
:1040F0001A70BDE0BB6999681623FB181A88130073
:104100005B009B189B00CB18180000F0CEF9031E33
:1041100000D174E0BB68002B1AD02423FC182423A0
:10412000FB1819881423FB181A88BB6810009847DD
:1041300003002380BB6999681623FB181A881300B3
:104140005B009B189B00CB182422BA1812885A8156
:10415000BB6999681623FB181A8813005B009B182B
:104160009B00CB189A881223FC182423FB181B8869
:104170001900100000F06CF903002380BB699968F6
:104180001623FB181A8813005B009B189B00CC18A1
:1041900000F085F903001A1C03231340DBB203224D
:1041A0001340D9182378062293431A1C0B1C13437F
:1041B00023707B68002B13D0BB6999681623FB180A
:1041C0001A8813005B009B189B00CC181223FB1865
:1041D00000229A5E7B68100098470300238147E025
:1041E000BB6999681623FB181A8813005B009B189B
:1041F0009B00CB181222BA1812881A8138E0BB69CA
:1042000099681623FB181A8813005B009B189B0003
:10421000CC18BB6999681623FB181A8813005B0039
:104220009B189B00CB189A882423FB181B88190025
:10423000100000F00DF903002381BB699968162373
:10424000FB181A8813005B009B189B00CC1800F029
:1042500026F903001A1C03231340DBB20322134088
:10426000D9182378062293431A1C0B1C134323707E
:104270003B6A02333B62FB690C33FB612623FB186C
:104280001A782623FB1801321A702623FB181B7894
:104290009AB2BB699B899A4200D293E62723FB1806
:1042A0001B781800BD460BB090BDC04684040020AA
:1042B0001800002080B58AB000AF0200FB1D1A7004
:1042C000FB1D1B78002B01D0022357E02D4B5968B2
:1042D000FB1D1A7813005B009B18DB00CB18BB6139
:1042E000BB691B683B62BB695B68FB61254BFA1DC0
:1042F00012781A72244ABB691B699362224ABB690D
:104300005B69136300237B6231E0BB699A68FB69D8
:104310001B8819000B005B005B189B00D3181B78EF
:10432000DB069B0FDBB27B617B69032B16D03B6AFC
:104330009B683B61144B144A126B3969C9430A40AC
:104340001A637B69002B09D13B6A5B68FB600E4BEB
:104350000D4A926AF968C9430A409A623B6A0C3373
:104360003B62FB690233FB617B6A01337B62BB69A1
:104370009B891A007B6A9A42C7D800231800BD4661
:104380000AB080BD840400200040024080B500AF28
:104390000C4B0C4A926803210A439A600A4B1B6932
:1043A000180000F0A0F8074B064A126810210A43D3
:1043B0001A60044B034A126802210A431A60C0467D
:1043C000BD4680BD004002408404002080B582B01C
:1043D00000AFFB1D01221A700E4BDB680122134057
:1043E00011D00C4B0B4A126810218A431A60094BFA
:1043F000DB680222134003D0FB1D02221A7002E088
:10440000FB1D00221A70FB1D1B781800BD4602B070
:1044100080BDC0460040024080B582B000AF0200BF
:10442000FB1D1A70FB1D1B78072B09D8074AFB1DC3
:104430001B780C339B00D31804331B689BB200E03D
:1044400000231800BD4602B080BDC04600400240B7
:1044500080B582B000AF0200BB1D1A803B1D0A1C54
:104460001A80BA1D3B1D12881B88D31A9BB21BB23F
:104470001800BD4602B080BD80B582B000AF02001A
:10448000BB1D1A803B1D0A1C1A803B1D1B88BA1DD0
:104490001288D31A9BB21800BD4602B080BD80B509
:1044A00000AF00231800BD4680BD80B582B000AFCC
:1044B000786001231800BD4602B080BD80B582B08F
:1044C00000AF786000231800BD4602B080BD80B503
:1044D00082B000AF78600A00BB1C1A80012318006C
:1044E000BD4602B080BD80B584B000AF78607B6807
:1044F000FB6002E0FB68013BFB60FB68002BF9D12D
:10450000C046BD4604B080BD80B582B000AF7860C3
:10451000C046BD4602B080BD80B588B000AF7860AF
:1045200008001100BB1C021C1A803B000A1C1A80E8
:104530000A23FB1800221A801C23FB1801221A8070
:104540001A23FB1800221A801223FB18BA1C1288A7
:104550001A801023FB1800221A800023FB60BB1C6A
:104560001B88FF2B02D9BB1CFF221A803B001B8833
:10457000FF2B02D93B00FF221A807B681B687B61FE
:104580001F23FB1800221A707CE07B69180000F0E2
:1045900081FA4A4BDB681B78102B04D0474BDB6851
:1045A0001B78112B11D1454B5B691B681B78022BC3
:1045B00003D07B6908337B615DE01023FB18012287
:1045C0001A803E4B5B699B68FB60FB68002B01D146
:1045D00000236EE01E23FB1800221A703FE00A231E
:1045E000FB18FA6812891A800A23FB1800229B5EC6
:1045F000002B04D11C23FB1800221A8025E00A237B
:10460000FB1800229B5E002B10DA1A23FB180022F5
:104610009B5E002B04DD1C23FB1800221A8014E093
:104620001A23FB18012252421A800EE01A23FB18AB
:1046300000229B5E002B04DA1C23FB1800221A8048
:1046400003E01A23FB1801221A80FB680C33FB607D
:104650001E23FB181A781E23FB1801321A701E2322
:10466000FB181B789BB21022BA1812889A42B6D84F
:104670007B6908337B611F23FB181A781F23FB1803
:1046800001321A701F23FB181B789AB27B689B8833
:104690009A4200D279E71C23FB1800229B5E002B74
:1046A00004D01223FB183A0012881A801223FB1838
:1046B0001B881800BD4608B080BDC0468404002099
:1046C00080B58AB000AF78600A00BB1C1A801E2338
:1046D000FB1800221A800023BB6100237B61BB1CF6
:1046E0001B88FF2B02D9BB1CFF221A807B681B682A
:1046F0003B62BB1C1B88FF2253409AB21223FB185B
:1047000001321A802723FB1800221A7081E03B6ACD
:10471000180000F0BFF9464BDB681B78102B04D063
:10472000434BDB681B78112B13D1414B5B691B6832
:104730001B78022B03D03B6A08333B6262E01E23E6
:10474000FB1801221A803A4B5B699B68BB61394BAD
:104750007B61BB69002B66D02623FB1800221A70F0
:1047600044E0BB699A88BB6908215B5E19001000B0
:10477000FFF782FE0300FB60FB681B02FB60BB6966
:104780009B88BB60BB681B02BB60BB699B791A003E
:10479000BB689B18BB601223FB181A88BB68534385
:1047A000BB60BB1C1B88FA685343BA68D318BB6054
:1047B000BB681B0ADAB2BB699A71BB681B0C9AB260
:1047C000BB699A80BB691800FFF778FE0300012BD4
:1047D00002D17B6900209847BB690C33BB6126235B
:1047E000FB181A782623FB1801321A702623FB18AF
:1047F0001B789BB21E22BA1812889A42B1D83B6A23
:1048000008333B622723FB181A782723FB18013251
:104810001A702723FB181B789AB27B689B889A42F0
:1048200000D274E700E0C046BD460AB080BDC04675
:1048300084040020AD4D000890B585B000AF7860CD
:104840007B68DB881A000123134020D07B68DB885B
:104850001A003E2313401AD17B689B7A002B1CD18F
:104860002C4B2C4A126802218A431A602A4B1A8860
:104870007B689A81274B274A126802210A431A60F3
:104880007B6801229A727B6800225A7205E07B687D
:1048900000229A727B6800225A727B689B7A002BF6
:1048A00011D07B685B7A002B0DD17B680C331A002A
:1048B000FA235B001100180000F030F9031E02D14A
:1048C0007B6801225A727B685B7A002B16D00C231E
:1048D000FC187B6814220A211800FFF71DFE030054
:1048E00023800C23FB181A887B6811001800FFF73F
:1048F000E7FE0F23FB1800221A7003E00F23FB18BA
:1049000001221A700F23FB181B781800BD4605B052
:1049100090BDC04610E000E08404002080B586B061
:1049200000AF78600E23FB1800221A807B681B689A
:104930003B617B6800221A721723FB1800221A7051
:1049400034E03B69180000F0A5F83B691B78112B97
:1049500000D021E01E4BDB681B6898471D4B5B694C
:104960001B689B7840221340DBB2002B02D07B688F
:1049700001221A72164B9A68164B5B691B681B78EA
:10498000DB00D3181B7899B20E23FB180E22BA183D
:1049900012880A431A80C0463B6908333B611723DB
:1049A000FB181A781723FB1801321A701723FB180B
:1049B0001B789AB27B689B889A42C2D37B680E228E
:1049C000BA181288DA80C046BD4606B080BDC0461F
:1049D000180000208404002080B586B000AF786005
:1049E0000E23FB1800221A807B681B683B617B68E2
:1049F00000221A721723FB1800221A7034E03B6958
:104A0000180000F047F83B691B78112B00D021E01B
:104A10001E4BDB685B6898471D4B5B691B689B7886
:104A200040221340DBB2002B02D07B6801221A72B5
:104A3000164B9A68164B5B691B681B78DB00D31812
:104A40001B7899B20E23FB180E22BA1812880A435B
:104A50001A80C0463B6908333B611723FB181A785C
:104A60001723FB1801321A701723FB181B789AB210
:104A70007B689B889A42C2D37B680E22BA18128840
:104A8000DA80C046BD4606B080BDC0461800002092
:104A90008404002080B582B000AF7860084B7A684B
:104AA000DA607B681B78103B012B04D87B685A685E
:104AB000034B5A6100E0C046C046BD4602B080BD0F
:104AC0008404002080B500AF114B1B8801339AB2DB
:104AD0000F4B1A800F4B1B8801339AB20D4B1A8073
:104AE0000C4B1B880C4A93420FD9094B9B7801331E
:104AF000DAB2074B9A70064B9B783F2B02D9044BD6
:104B000000229A70034B00221A80C046BD4680BD29
:104B10008404002044000020E703000080B584B036
:104B200000AF02003960BB1D1A80294B284A126869
:104B300002218A431A600C23FB18264A12881A8025
:104B4000BB1D1B88002B07D1214B214A1268022173
:104B50000A431A60022337E03B681B889BB20C2291
:104B6000BA1812889A420AD33B681B889AB20E235D
:104B7000FB180C21791809888A1A1A8009E03B6809
:104B80001B889AB20E23FB180C21791809888A1AFF
:104B90001A800E23FA18BB1D12881B889A420CD368
:104BA0003B680C22BA1812881A80094B084A12680E
:104BB00002210A431A60002306E0054B044A1268EA
:104BC00002210A431A6001231800BD4604B080BDCB
:104BD00010E000E08404002080B584B000AF020043
:104BE0003960FB1D1A702A4B294A126802218A4338
:104BF0001A600E23FB18274A92781A70FB1D1B7847
:104C0000002B07D1224B224A126802210A431A6064
:104C1000022339E03B681B78DBB20E22BA18127807
:104C20009A420AD33B681B78DAB20F23FB180E2195
:104C3000791809788A1A1A700BE03B681B78DBB286
:104C40000E22BA181278D31ADAB20F23FB184032A8
:104C50001A700F23FA18FB1D12781B789A420CD396
:104C60003B680E22BA1812781A70094B084A12686B
:104C700002210A431A60002306E0054B044A126829
:104C800002210A431A6001231800BD4604B080BD0A
:104C900010E000E08404002080B500AF1B4B5B698E
:104CA0005B6814221A70194B5B695B680F225A709B
:104CB000164B5B695B681E229A70144B5B695B68DC
:104CC0001622DA70114B5B695B6805221A710F4B73
:104CD0005B695B6803225A710C4B5B695B6803225A
:104CE0009A710A4B5B695B680322DA71074B5B6957
:104CF0005B6803221A72054B5B695B6803225A7278
:104D0000002000F053F8C046BD4680BD840400205A
:104D100080B582B000AF234B5B699B681B78012292
:104D20001340DBB2002B05D11E4B5B691B681B785F
:104D3000132B32D11B4B5B699B681A7801218A4384
:104D40001A70184B5B691A68FB1D12781A70154BA4
:104D5000DB681B78112B09D1134B9A68114B5B69E7
:104D60001B681B78DB00D3185B6898470D4B5B69A9
:104D70001B681B78FA1D12789A4207D1094B5B69B0
:104D80001B689A7840218A439A7006E0054B5B695C
:104D90001B689A7840210A439A70C046BD4602B00B
:104DA00080BDC046840400201800002080B582B079
:104DB00000AF0200FB1D1A701E4B5B691B680022CE
:104DC0001A701C4B5B691B689A7840210A439A70E1
:104DD000184B5B699B681A7818210A431A70164BA6
:104DE0009B88042B02D0102B04D007E0134B022227
:104DF0001A800AE0114B04221A8006E00E4B0822AA
:104E00009A800E4B03221A80C0460A4B5B691B68CE
:104E1000094A9288D1B2FA1D12788A18D2B25A7011
:104E2000044B5B699B6800229A80C046BD4602B075
:104E300080BDC046840400201800002046000020E9
:104E400080B582B000AFFB1D00221A700A4BDB68F0
:104E50001B78112B0AD1094B9A68074B5B691B68B9
:104E60001B78DB00D218FB1D12781A70FB1D1B7813
:104E70001800BD4602B080BD840400201800002048
:104E800080B500AF1E4B5B699B681B785B079B0F6F
:104E9000DBB21A000223134005D0194B5B691B6873
:104EA00006221A7029E0164B5B699B6808229B5EFC
:104EB0001A00134B5B695B685B789A4205DD104B07
:104EC0005B691B6806221A7017E00D4B5B691B6853
:104ED0005B78002B06D00A4B5B691B685A78013A55
:104EE000D2B25A70064B5B691B685B78002B04D109
:104EF000034B5B691B6802221A70C046BD4680BD29
:104F00008404002080B500AF274B5B699B681B7849
:104F10005B079B0FDBB21A000223134005D0224B24
:104F20005B691B680A221A703BE01F4B5B699B6838
:104F300008229B5E1A001C4B5B695B68DB789A4217
:104F400005DD194B5B691B680A221A7029E0164BB4
:104F50005B699B6808229B5E1A00134B5B695B6868
:104F60005B789A4205DD104B5B691B6806221A705C
:104F700017E00D4B5B691B685B78002B06D00A4B72
:104F80005B691B685A78013AD2B25A70064B5B696A
:104F90001B685B78002B04D1034B5B691B68022202
:104FA0001A70BD4680BDC0468404002080B500AFA5
:104FB000274B5B699B681B785B079B0FDBB21A0072
:104FC0000223134005D0224B5B691B680C221A7028
:104FD0003BE01F4B5B699B6808229B5E1A001C4BE1
:104FE0005B695B68DB789A4205DD194B5B691B687E
:104FF0000C221A7029E0164B5B699B6808229B5EA5
:105000001A00134B5B695B685B789A4205DD104BB5
:105010005B691B6806221A7017E00D4B5B691B6801
:105020005B78002B06D00A4B5B691B685A78013A03
:10503000D2B25A70064B5B691B685B78002B04D1B7
:10504000034B5B691B6802221A70BD4680BDC046D7
:105050008404002080B500AF4D4B5B699B681B78D2
:105060005B079B0FDBB21A000223134019D0484B99
:105070005B691A68464B5B695B685B7A5370444BAB
:105080005B691B685B78002B05D1414B5B691B6832
:105090000D221A7079E03E4B5B691B680F221A7073
:1050A00073E03B4B5B699B6808229B5E1A00384BA0
:1050B0005B695B689B789A421BDB354B5B691A68BE
:1050C000334B5B695B68DB795370314B5B691B6801
:1050D0005B78002B07D12E4B5B691B680A221A7084
:1050E00000F02CFD51E02A4B5B691B680B221A7003
:1050F0004BE0274B5B699B6808229B5E1A00244BA0
:105100005B695B681B789A421BDB214B5B691A6801
:105110001F4B5B695B689B7953701D4B5B691B6818
:105120005B78002B07D11A4B5B691B6806221A704B
:1051300000F004FD29E0164B5B691B6807221A701A
:1051400023E0134B5B699B6808229B5E1A00104B9F
:105150005B695B681B795B429A4216DC0C4B5B69AE
:105160001A680B4B5B695B685B795370084B5B6932
:105170001B685B78002B03D10020FFF717FE04E0CB
:10518000034B5B691B6801221A70BD4680BDC04697
:105190008404002080B500AF1E4B5B699B681B78C0
:1051A0005B079B0FDBB21A000223134005D0194B9B
:1051B0005B691B6802221A7028E0164B5B699B68CA
:1051C00008229B5E1A00134B5B695B681B795B428C
:1051D0009A4216DC0F4B5B691B685B78002B06D08C
:1051E0000C4B5B691B685A78013AD2B25A70094B72
:1051F0005B691B685B78002B08D10020FFF7D6FDA8
:1052000004E0044B5B691B6802221A70C046BD466D
:1052100080BDC0468404002080B582B000AF4F4BF3
:105220005B699B681B785B079B0FDBB21A0002234C
:10523000134019D0494B5B691A68484B5B695B683E
:105240005B7A5370454B5B691B685B78002B05D11B
:10525000424B5B691B680D221A707BE03F4B5B6918
:105260001B680E221A7075E03C4B5B699A68BB1D87
:1052700052891A80394B5B691B685A78384B9B8876
:10528000DBB29A4217D1354B5B699A68BB1D1B880C
:1052900019001000FFF71BF9031E06D02F4B5B69A6
:1052A0009B68BA1D12889A8024E02C4B5B699B682E
:1052B00000229A804EE0294B5B699A68274B5B6914
:1052C0009B689988BB1D1B88CB189BB29380234B8E
:1052D0005B699B689B88BA1D12889A420AD91F4B4A
:1052E0005B699B6800229A801C4B5B691B680D22DE
:1052F0001A702FE0194B5B691B685B78002B06D096
:10530000164B5B691B685A78013AD2B25A70134B3C
:105310005B691B685B78002B1CD1104B5B699A683A
:105320000E4B5B699B689B8819000E4B1B881941CB
:105330000B009BB29380094B5B699B6800229A71BA
:10534000064B5B699B6800221A81044B5B691B68F2
:1053500002221A70BD4602B080BDC04684040020FF
:10536000180000204600002080B500AF334B5B6979
:105370009B681B785B079B0FDBB21A00022313406C
:1053800005D02E4B5B691B6802221A7053E02B4B31
:105390005B699B6808229B5E1A00284B5B695B680F
:1053A0009B789A421BDB254B5B691A68234B5B6930
:1053B0005B68DB795370214B5B691B685B78002B62
:1053C00007D11E4B5B691B680A221A7000F0B6FBFE
:1053D00031E01A4B5B691B680B221A702BE0174BEC
:1053E0005B699B6808229B5E1A00144B5B695B68D3
:1053F0001B789A421ADB114B5B691B685B78002BA8
:1054000006D00E4B5B691B685A78013AD2B25A70CB
:105410000A4B5B691B685B78002B0CD1074B5B69FF
:105420001B6806221A7000F089FB04E0034B5B69DD
:105430001B6802221A70BD4680BDC046840400204D
:1054400080B500AF324B5B699B681B785B079B0F95
:10545000DBB21A000223134005D02D4B5B691B6899
:105460000A221A7051E02A4B5B699B6808229B5EF6
:105470001A00274B5B695B68DB789A4205DD244B99
:105480005B691B680A221A703FE0214B5B699B68CD
:1054900008229B5E1A001E4B5B695B685B789A4230
:1054A0001ADD1B4B5B691B685B78002B06D0184B21
:1054B0005B691B685A78013AD2B25A70144B5B6927
:1054C0001B685B78002B20D1114B5B691B6806229F
:1054D0001A7000F033FB18E00D4B5B691A680C4B37
:1054E0005B695B681B7A5370094B5B691B685B786F
:1054F000002B05D1064B5B691B6802221A7004E081
:10550000034B5B691B6804221A70BD4680BDC04610
:105510008404002080B500AF324B5B699B681B7828
:105520005B079B0FDBB21A000223134005D02D4B03
:105530005B691B680C221A7051E02A4B5B699B68FF
:1055400008229B5E1A00274B5B695B68DB789A42F6
:1055500005DD244B5B691B680C221A703FE0214B70
:105560005B699B6808229B5E1A001E4B5B695B6847
:105570005B789A421ADD1B4B5B691B685B78002BDA
:1055800006D0184B5B691B685A78013AD2B25A7040
:10559000144B5B691B685B78002B20D1114B5B6956
:1055A0001B6806221A7000F0C9FA18E00D4B5B69FF
:1055B0001A680C4B5B695B681B7A5370094B5B691B
:1055C0001B685B78002B05D1064B5B691B680222C8
:1055D0001A7004E0034B5B691B6805221A70BD4614
:1055E00080BDC0468404002080B582B000AF4A4B25
:1055F0005B699B681B785B079B0FDBB21A00022379
:10560000134019D0444B5B691A68434B5B695B6874
:105610005B7A5370404B5B691B685B78002B05D14C
:105620003D4B5B691B680D221A7071E03A4B5B6958
:105630001B6810221A706BE0374B5B699B6808226D
:105640009B5E1A00344B5B695B689B789A421BDB5C
:10565000314B5B691A68304B5B695B68DB7953706F
:105660002D4B5B691B685B78002B07D12A4B5B696C
:105670001B680A221A7000F061FA49E0264B5B6948
:105680001B680B221A7043E0234B5B699B6808225E
:105690009B5E1A00204B5B695B685B789A4219DC61
:1056A0001D4B5B691A681C4B5B695B681B7A537006
:1056B000194B5B691B685B78002B05D1164B5B6946
:1056C0001B6802221A7023E0134B5B691B680322DC
:1056D0001A701DE0114B9B79012B19D90F4B9B7947
:1056E0003F2B15D80C4B5B691B689B789B069B0E68
:1056F000DBB21A00FB1D1A70084B9B79FA1D1100D2
:105700001800FFF769FA031E02D10020FFF74EFBD5
:10571000BD4602B080BDC0468404002018000020B1
:1057200080B500AF334B5B699B681B785B079B0FB1
:10573000DBB21A000223134005D02E4B5B691B68B5
:1057400002221A7053E02B4B5B699B6808229B5E18
:105750001A00284B5B695B689B789A421ADB254BE1
:105760005B691B685B78002B06D0224B5B691B686A
:105770005A78013AD2B25A701E4B5B691B685B784B
:10578000002B34D11B4B5B691B680A221A7000F096
:10579000D5F92CE0174B5B699B6808229B5E1A00C9
:1057A000144B5B695B681B789A421BDB114B5B698E
:1057B0001A68104B5B695B689B7953700D4B5B6992
:1057C0001B685B78002B07D10A4B5B691B680622BC
:1057D0001A7000F0B3F90AE0064B5B691B680722F8
:1057E0001A7004E0034B5B691B6802221A70C04602
:1057F000BD4680BD8404002080B582B000AF4B4B15
:105800005B699B681B785B079B0FDBB21A00022366
:10581000134019D0454B5B691A68444B5B695B6860
:105820005B7A5370414B5B691B685B78002B05D139
:105830003E4B5B691B680D221A7073E03B4B5B6942
:105840001B6811221A706DE0384B5B699B68082257
:105850009B5E1A00354B5B695B68DB789A421EDD04
:10586000334B9B79012B5CD9314B9B793F2B58D81B
:105870002E4B5B691B689B789B069B0EDBB21A0064
:10588000FB1D1A702A4B9B79FA1D11001800FFF7B7
:10589000A3F9031E45D10020FFF788FA41E0234B0E
:1058A0005B699B6808229B5E1A00204B5B695B6802
:1058B0005B789A421BDD1D4B5B691A681B4B5B6969
:1058C0005B689B795370194B5B691B685B78002B95
:1058D00007D1164B5B691B6806221A7000F02EF97F
:1058E00020E0124B5B691B6808221A701AE00F4B0C
:1058F0005B691A680D4B5B695B681B7A53700B4BD5
:105900005B691B685B78002B05D1084B5B691B68E2
:1059100002221A7006E0054B5B691B6804221A70AC
:1059200000E0C046BD4602B080BDC04684040020F1
:105930001800002080B582B000AF4B4B5B699B68BC
:105940001B785B079B0FDBB21A000223134019D0B0
:10595000454B5B691A68444B5B695B685B7A5370C3
:10596000414B5B691B685B78002B05D13E4B5B6943
:105970001B680D221A7073E03B4B5B691B68122297
:105980001A706DE0384B5B699B6808229B5E1A00B9
:10599000354B5B695B68DB789A421EDD334B9B7944
:1059A000012B5CD9314B9B793F2B58D82E4B5B692F
:1059B0001B689B789B069B0EDBB21A00FB1D1A70BE
:1059C0002A4B9B79FA1D11001800FFF705F9031EF9
:1059D00045D10020FFF7EAF941E0234B5B699B6862
:1059E00008229B5E1A00204B5B695B685B789A42D9
:1059F0001BDD1D4B5B691A681B4B5B695B689B7900
:105A00005370194B5B691B685B78002B07D1164BF1
:105A10005B691B6806221A7000F090F820E0124BB8
:105A20005B691B6809221A701AE00F4B5B691A68E0
:105A30000D4B5B695B681B7A53700B4B5B691B6892
:105A40005B78002B05D1084B5B691B6802221A703A
:105A500006E0054B5B691B6805221A7000E0C04632
:105A6000BD4602B080BDC04684040020180000205E
:105A700080B582B000AF304B5B699B681B785B07D9
:105A80009B0FDBB21A000223134018D02A4B5B692C
:105A90001B685B78002B06D0274B5B691B685A7824
:105AA000013AD2B25A70244B5B691B685B78002BB9
:105AB0003DD1214B5B691B680D221A7037E0FFF75F
:105AC000BFF903001A00FB1D1A70FB1D1B78DBB227
:105AD0005F221340DAB2FB1D1A70FB1D1B78DBB28C
