:020000040800F2
:1000000000200020BD400008E93F0008F33F000841
:1000100000000000000000000000000000000000E0
:10002000000000000000000000000000F93F000890
:100030000000000000000000034000080D40000820
:100040000D4100080D4100080D4100080D41000858
:100050000D4100080D4100080D4100080D41000848
:100060000D410008413E00080D4100080D41000807
:100070000D4100080D410008000000000D4100087E
:10008000000000000D41000800000000000000001A
:100090000D410008000000000D4100080D4100085E
:1000A0000D4100080D4100080D4100080D410008F8
:1000B0000D4100080D410008000000000D4100083E
:1000C00010B5064C2378002B07D1054B002B02D02E
:1000D000044800E000BF0123237010BD0800002089
:1000E0000000000068410008044B10B5002B03D04D
:1000F0000349044800E000BF10BDC04600000000F6
:100100000C00002068410008002243088B4274D391
:1001100003098B425FD3030A8B4244D3030B8B4208
:1001200028D3030C8B420DD3FF22090212BA030C11
:100130008B4202D31212090265D0030B8B4219D3F2
:1001400000E0090AC30B8B4201D3CB03C01A524112
:10015000830B8B4201D38B03C01A5241430B8B425A
:1001600001D34B03C01A5241030B8B4201D30B0343
:10017000C01A5241C30A8B4201D3CB02C01A52416A
:10018000830A8B4201D38B02C01A5241430A8B422D
:1001900001D34B02C01A5241030A8B4201D30B0216
:1001A000C01A5241CDD2C3098B4201D3CB01C01A30
:1001B000524183098B4201D38B01C01A524143093A
:1001C0008B4201D34B01C01A524103098B4201D328
:1001D0000B01C01A5241C3088B4201D3CB00C01A95
:1001E000524183088B4201D38B00C01A524143080D
:1001F0008B4201D34B00C01A5241411A00D2014632
:10020000524110467047FFE701B5002000F006F8A4
:1002100002BDC0460029F7D076E770477047C04658
:1002200070B500220C4B04000D0001F081F800288D
:1002300004D12000290000F0C1FF70BD064B002250
:100240002000290000F0A4FC00F0B8FF80231B066A
:100250009C466044F1E7C0460000E041F8B55746CF
:100260004E464546DE46E0B54702460088467F0AD0
:10027000360EC40F002E47D0FF2E24D0FB0080275F
:10028000FF041F43002399469A467F3E43465D0282
:100290005800DB0F6D0A000E984643D0FF283BD074
:1002A000EB0080250022ED041D437F383618731CB7
:1002B00041469B464B46614013430F2B64D875481B
:1002C0009B00C3589F46002F42D108239946063B06
:1002D000FF269A46DAE74146022A28D0032A00D1AF
:1002E000CEE0012A00D0ACE0114000200022CCB2C8
:1002F0004002D205400AE407104320433CBC90462C
:100300009946A246AB46F8BD002F15D10423994665
:10031000033B00269A46B9E7FF200222002DC5D0F4
:100320000322C3E7002D19D100200122BEE70124DA
:10033000FF220C400020DBE7380001F003F87626AE
:10034000431F9F4000237642361A99469A469DE7FE
:100350000C239946093BFF269A4697E7280000F0B0
:10036000F1FF431F9D4076235B42181A00229DE750
:1003700080200024C003FF22BAE73D005246ABE7CD
:100380003D0021005246A7E73B0C9C462A04120C74
:100390002B0C1400604665463F043F0C7C434243EF
:1003A0005D437B43270C9B18FF18BA4203D9802377
:1003B0005B029C46654424043A04240C1219930100
:1003C0005C1EA3413F0C920E7D191A43AD011543EB
:1003D0002B0104D501235E466A081D4015433200F7
:1003E0007F32002A25DD6B0704D00F232B40042B1E
:1003F00000D004352B0103D53200274B80321D403D
:10040000FE2A94DC0124A801400AD2B20C406FE716
:100410008020C003074207D0054205D1284340028F
:10042000400A4446FF2263E738434002400AFF2265
:100430005EE70124A31A1B2B05DD0C4000220020DF
:1004400056E75E46CBE72A002020DA40C31A9D40DB
:100450002B005D1EAB4113435A0704D00F221A40F4
:10046000042A00D004335A0104D5012401220C408F
:1004700000203DE701249B01580A0C40002237E789
:1004800080200124C00328434002400A0C40FF2280
:100490002EE7C046B0410008FFFFFFF710B5041E6D
:1004A00027D000F04FFF9E231B1A962B0ADC9622C2
:1004B000D21A94406402640ADBB26402DB05600A6B
:1004C000184310BD992B17DC9922D21A002A27DD78
:1004D00094402200134C1440510704D00F210A40CD
:1004E000042A00D00434620112D4A401640ADBB2ED
:1004F000E3E700230024E0E7B9222100D21A91406B
:100500000A00511E8A410521091ACC401443DBE739
:10051000044B1C409F23A4011B1A640ADBB2CCE7E6
:100520002200D7E7FFFFFFFBF0B557464546DE4602
:100530004E46E0B54C000E0387B0834692461D0040
:100540008046360B640DCF0F002C4FD06F4B9C4272
:1005500035D08023420F1B04F600134333439946E2
:10056000C30098466A4B00269C46002364440393CC
:100570002B031B0B9B466B00ED0F50465B0D01954B
:100580005ED0624A934253D05A46D1008022400F37
:10059000120402430A4393465246D1005C4A9446F1
:1005A000002263443800684084460290E41A1643EF
:1005B0000F2E00D9B4E0574BB6009B599F4603005D
:1005C000334399466CD1002398460233082603939F
:1005D000CEE7CB464146039A0197022A65D1019B9B
:1005E0004A4C9C460023002298466BE003003343AC
:1005F00099464ED0002E00D1BCE1300000F0A2FEA2
:1006000003000B3B1C2B00DDACE11D22D31A5A4624
:100610000100DA4008398E401300334399465B46A7
:100620008B40984600233C4C0026241A03939FE7F6
:1006300051465A46114329D1002293460232B1E76E
:10064000594601431ED05B46002B00D19EE158461F
:1006500000F078FE03000B3B1C2B00DD8FE1020055
:100660005946083A91408B461D21CB1A5146D94034
:100670000B0059460B4351469B469140264B0022A6
:100680001B1A8FE7002301229B468BE7514603226A
:1006900088E700239846013304260024039367E784
:1006A0000323B14603930C2662E7032A00D15CE2E0
:1006B000019B012A00D0E4E113409C460023002462
:1006C0000022984600211203130B0A0D12051A434B
:1006D0002305124C40462240134362465B00D2077A
:1006E0005B081343190007B03CBC90469946A246EC
:1006F000AB46F0BD002380229C4612039846034C73
:10070000E0E70023014C00229846DBE7FF070000EA
:1007100001FCFFFFF04100080DFCFFFFFFFF0F8011
:10072000D94500D939E100D134E1002346464D4690
:100730009A46013C5B460A0E1B021A430B02170C39
:10074000039313041B0C3900280090460193FFF714
:10075000DBFC0200019B83465A4328003900914686
:10076000FFF758FD350C09040D43A9450DD95B462B
:100770004544013BA84500D93AE1A94500D837E1F5
:1007800002235B429C464544E3444B46EB1A390046
:1007900018000493FFF7B8FC019B050043433900A0
:1007A00004989946FFF736FD330409041B0C0B43EC
:1007B000994509D943446A1E984500D91AE19945DB
:1007C00000D817E1023D43444A469B1A5A46120498
:1007D0002A4303999346100C0A0C914609045A4681
:1007E000090C4E460D001204120C4543059151436D
:1007F0007243704352190E0CB218954203D98025EA
:100800006D02AC466044150C09041204090C28184A
:100810005218834200D2CEE000D1C8E01D1A5346E0
:100820009E1AB24592415242AB1A9A46984500D15F
:1008300017E139001800FFF767FC019B05004343EF
:10084000390050460493FFF7E5FC04980B04310C83
:100850001943884209D941446B1E884500D907E1F4
:10086000884200D804E1023D4144049BCB1A1800A1
:1008700039000493FFF748FC019B8246434339004B
:1008800004980193FFF7C6FC01980B043104090C8E
:10089000194388420DD953464144013B884500D94C
:1008A000E8E0884200D8E5E002235B429C464144F0
:1008B000E244019B2D04CE1A51462943059D4F4623
:1008C0002A000B04080C1B0C5A4345437B43784316
:1008D0005B19170CFB189D4203D980256D02AC46AD
:1008E00060441D0C12041B04120C28189B1886422D
:1008F00000D293E000D18EE001231943A04BE3180E
:10090000002B00DC99E04A0700D09EE05A46D20155
:1009100006D55A469B4B1A4080239346DB00E318CA
:10092000994A934268DD0123029A984C1A400023A9
:10093000944698460022C5E680224B461203134295
:100940000AD05B46134206D11A431203120BAC467F
:1009500088468E4CB6E64B461A431203120BBC4631
:100960008A4CAFE603005A46283B9A400023914642
:10097000984657E6584600F0E5FC203040E6030074
:100980005246283B9A400021934677E600F0DAFC75
:1009900020305FE6884500D2C7E64B46DE075D089B
:1009A00043465B081E434346DB079A46C2E60025E2
:1009B000924500D333E7039E5946B446E244B2451C
:1009C000AD416D424544EB180139984507D2984234
:1009D00000D97FE000D1BCE01D1A8B461FE7984587
:1009E000FAD1039D5545F2D943468B461D1A16E7A9
:1009F0009B46CAE61500E7E65A46C90852070A436D
:100A00005B0590465C0D5A4601230299520219403B
:100A1000120B8C4656E6002B00D16FE746444A1E67
:100A2000B04529D91100864200D065E7039A934268
:100A300000D061E762E7012149420120C21A382A49
:100A400021DD029B03409C4638E60F220A40042A1F
:100A500000D15BE70A00111D91429241524293443A
:100A600054E7474BE318002BE5DD01225242F2E741
:100A70001D00FAE69A461CE7B04239D86ED0110044
:100A80003AE702933AE71F2A3CDC20239B1A0C002A
:100A90005846994098404B1E99415B46D440D340FC
:100AA000204308431A00430709D00F230340042BB7
:100AB00005D00100081D88429B415B42D2181302F9
:100AC0003AD50123029A01241A40002394469846FD
:100AD0000022F7E5022149428C46039DE344AC46DF
:100AE000E244AA45AD416D424544ED182D1A96E603
:100AF0008A1E03994D008D4289414942414476182E
:100B000003958FE71F204042C31A5846D840030080
:100B1000202A28D040205D46821A954029434A1E4B
:100B200091411943072300220B4009D00F230022D3
:100B30000B400800042BBDD1010053075202120BD9
:100B4000C9081943012388460299002419408C469C
:100B5000B8E55245BED88B46002560E6039D9D4210
:100B6000C6D3110062E70025D8E780225B46120356
:100B70001A43019B1203120B9C468846034CA1E5C5
:100B8000FF030000FFFFFFFEFE070000FF0700005D
:100B9000F0B54646D6464F460C03C0B5CD0F4E00C5
:100BA000610A440F0C43C1005800400D84468A4638
:100BB0000F001903500F490A0143C648760DA84695
:100BC000DB0FD200844500D1D8E001204340AB4286
:100BD00000D1A6E06046351A002D00DC05E10028B2
:100BE00010D10B00134300D1D7E06B1E002B00D0B7
:100BF0004BE153469F1ABA458041641A4042241A79
:100C000001261EE0B34B9E4248D080231B041943AB
:100C1000382D00DD19E11F2D00DD4CE120230F00F0
:100C20005B1B10009A409F40E840531E9A41E940E8
:100C3000074317435346DF1B611ABA45A441644278
:100C40000C1B230200D4C5E06402650A002D00D10C
:100C5000F6E0280000F076FB0300083B1F2B00DDC8
:100C6000E9E020223C00D21A9D40D4409F40254319
:100C70009E4200DDDBE09E1B731C1F2B00DD0AE1A2
:100C800020223800D21A290097402C009140D840E9
:100C90007A1E9741DC40002601430F437B0709D0B1
:100CA0000F233B40042B05D03B1DBB42BF417F427D
:100CB000E4191F00230225D5864B01369E4200D140
:100CC000AFE0854B01251C4043466207FF086402E4
:100CD00076051743240B760D1D4000212403230BBA
:100CE0000C0D7E4A24051C431440330523435B004E
:100CF000ED075B082B43380019001CBC9046994651
:100D0000A246F0BD012543466207FF081743E408E9
:100D10001D40704B9E4236D024037605240B760D81
:100D2000DBE76346F31A002B00DC94E06046002802
:100D300035D068488642B1D080273F043943382BEC
:100D400000DCFDE00A43170000217A1E974157445A
:100D500057458041091944420C1923023AD55D4B8D
:100D600001369E4200D14BE101225B4B1C407B08C7
:100D700017401F43E207174364088FE7080010433A
:100D800000D024E721E723003B4300D1B9E18022D2
:100D9000120314432403240B9FE72E007EE7080070
:100DA000104300D1CAE0581E8446002800D0E7E076
:100DB00052445245804164184042241817000126CD
:100DC000230207D50226CFE764462C4300D1B3E1C6
:100DD0002C0067467B0700D062E76307FF081F43CC
:100DE00001254346E4081D4093E7002D78D1751C8A
:100DF0006D056D0D012D00DCF2E05046801A824534
:100E0000BF41651A7F42ED1B8446280200D48CE066
:100E10005046171ABA4292410C1B5542651B984620
:100E200014E70125434600241D40002755E72A4CBE
:100E3000F61A2C4032E73D0028388540002717E796
:100E4000380000F07FFA203006E70A43170000213F
:100E50007A1E9741EEE6002B00D0E5E0731C9C461D
:100E60005B055B0D012B00DC9FE01A4B9C4500D11C
:100E7000C5E0524452458041641840422418E707B7
:100E8000520817436408664608E71248854200D1B5
:100E900085E01D00BCE629001F3EF140202B00D15B
:100EA0007FE04022D31A9D402F437D1EAF41002496
:100EB0000F4300268EE72B000F00203BDF40202D44
:100EC00071D040235D1BA9400A43511E8A41002175
:100ED0001743AFE6FF070000FFFF7FFFFFFF0F8014
:100EE000002E3ED0B34EB44545D0802636046D4228
:100EF0003443382D00DDA8E01F2D00DD1FE1202642
:100F000027005046761BB740E84007435046B040A4
:100F1000461EB041EC403843171ABA4292410C1BAE
:100F20005242A41A664698468BE6644667462C43AE
:100F300000D08BE6002500260027EAE61E00ADE67D
:100F40001F2B60DC2027F81A0F0084468740100012
:100F5000D840074360468240501E8241D940174323
:100F6000F5E626005046064305D0ED43002DD3D0CC
:100F7000904EB445BDD10C001700664698468DE6EC
:100F80008C4883420BD06346D9E6002D00D096E012
:100F90000800104300D1E2E00C0017009846854E8F
:100FA0007CE6002580E700218EE7230050460343BE
:100FB000002E00D0A8E0002B00D1DEE00B00134390
:100FC00000D16BE6524452458041641840422418D7
:100FD0001700230200D4FDE6774B66461C405DE611
:100FE000250050460543002ECFD1002D4FD10C00D7
:100FF000144300D1A0E00C00170098464EE6664668
:101000000024002785E61F000800203FF840070065
:10101000202B00D18EE04020C31A99400A43511E74
:101020008A410021174392E6002E14D12600504633
:10103000064362D0DB43002B5CD187189742924174
:1010400064185242A418664687E650462043441E60
:10105000A041002460E7574EB4454ED080263604A8
:101060005B423443382B00DD7FE01F2B00DD8BE03B
:10107000202627005046F61AB740D840074350466E
:10108000B040461EB0410743DC40BF18D6E70D0014
:10109000154300D102E65046801A8245BF41651AC9
:1010A0007F42ED1B8446280200D48DE65046171A75
:1010B000BA4292410C1B5242A41A9846EEE50D002A
:1010C000154300D16BE750466707C00807438020EF
:1010D000E4080003044207D0CD08054204D12C00E7
:1010E0009846D70849070F437B0FE4001C43FF00D5
:1010F000304ED3E52F4EB445B4D10C0017006646F0
:10110000CCE500270024E8E5002B39D00B00134381
:1011100000D144E7C008670707438020E4080003C4
:101120000442E1D0CB080342DED1D70849070F4380
:101130001C00D9E7002171E700250027E9E52E0012
:101140002700203EF740202D2FD04026751BAC40B5
:1011500050462043441EA04100243843DCE680244E
:1011600000252403134E0027D3E5504620430700F3
:10117000781E87410024BF1860E70C0017008DE53A
:101180000C0017000B4E89E51E002700203EF7409B
:10119000202B0CD04026F31A9C4050462043441E7E
:1011A000A04107430024BF1848E70024D0E70024EB
:1011B000F3E7C046FF070000FFFF7FFF30B5134D88
:1011C0000A034B00120B5B0DC90F0024AB4210DD6C
:1011D0000F4CA3420FDC80240E4D64032243ED1A12
:1011E0001F2D0BDD0C48C31ADA405442002900D1F0
:1011F0001400200030BD094BCC18FAE7084CE84039
:10120000A44663449A400243EFE7C046FE03000051
:101210001D0400003304000013040000FFFFFF7FE3
:10122000EDFBFFFF4100090E4B1C70B5DBB246021F
:10123000750AC40F012B14DDE0239B006D07360BEC
:10124000CB1800210A0D280012051C4D32435B0506
:101250002A405B0813435B00E4075B082343190043
:1012600070BD002914D1002D1ED0280000F06AF8AE
:101270000A281CDC0B232A001B1ADA400300153352
:101280009D400F4B12031B1A5B05160B5B0DD8E735
:10129000002D06D0320B802636036D071643094B0E
:1012A000CFE7084B0026CCE700230026C9E7030060
:1012B0002A000B3B9A400025E3E7C046FFFF0F8062
:1012C00089030000FF0700008446101C62468C461C
:1012D000191C634600E0C0461FB500F0EFF8002877
:1012E00001D40021C8421FBD10B500F049F84042AA
:1012F000013010BD10B500F0E1F8002801DB00203E
:1013000010BD012010BDC04610B500F0D7F8002870
:1013100001DD002010BD012010BDC04610B500F059
:1013200069F8002801DC002010BD012010BDC04676
:1013300010B500F05FF8002801DA002010BD012090
:1013400010BDC0461C2101231B04984201D3000C90
:1013500010391B0A984201D3000A08391B09984228
:1013600001D30009043902A2105C40187047C0463E
:10137000040302020101010100000000000000005E
:10138000F0B54F464646D6465C00C0B51F03DB0F9E
:101390009A46174B0E034D0084468046360B6D0D62
:1013A000C90F91463F0B640D01209D4208D09C421D
:1013B00001D0A5420BD01CBC90469946A246F0BD78
:1013C00063463343F7D1AC42F5D13A43F3D1012020
:1013D000BE42F0D1C845EED1514507D0002DEAD12B
:1013E00063461E433000461EB041E4E70020E2E7BA
:1013F000FF070000F0B54546DE4657464E46E0B5CD
:101400001F033D0B2C4F0E034C00AB465D00844682
:10141000360B640DC90F90466D0DDB0FBC422AD010
:10142000254FBD422DD0002C0FD1304307008146FF
:1014300078427841C0B2002D17D15F463A4314D1AB
:101440004B460020002B0AD006E0002D02D1584662
:10145000024301D0994218D04842012108433CBCC4
:1014600090469946A246AB46F0BD0028F2D0012036
:10147000013B1843F3E737000743D1D00220404235
:10148000EDE75F461743CED0F8E7AC42E4DC03DA81
:10149000481E01210843E2E75E45DDD806D0002062
:1014A0005E45DCD20123481E1843D8E7C445D3D893
:1014B0000020C445F6D3D2E7FF070000F0B54E4642
:1014C0004546DE4657465C00E0B51F03DB0F9946F4
:1014D0002A4B0E034D00C90F8446360B6D0D8B460B
:1014E00090463F0B640D9D4220D0244B9C4222D05D
:1014F000002D12D1304343424341DBB2002C1FD0B8
:10150000002B0CD04B460120013B034318003CBC90
:1015100090469946A246AB46F0BD002C16D0CB456E
:1015200017D05B46594201230B43EFE731000223FA
:101530000143EBD1D9E7390002231143E6D1D7E7C4
:101540003A43DDD100230028E0D0EAE73A43E6D170
:10155000E7E7A542E5DC05DBBE42E2D807D0002381
:10156000BE42D3D25946012301390B43CEE7C445CD
:10157000D7D80023C445F5D3C8E7C046FF0700000D
:1015800080B500AF074B074A126840210A431A6032
:10159000002000F009F802F0E5FC00231800BD4629
:1015A00080BDC0460020024080B582B000AF7860A8
:1015B0000B4B1A68FA2399001000FEF7A5FD0300F3
:1015C000180000F0E5F8796801235B42002218005A
:1015D00000F0C8F800231800BD4602B080BDC04628
:1015E0000400002080B500AF034B1B685A1C024B5F
:1015F0001A60C046BD4680BD5804002080B500AFCB
:10160000024B1B681800BD4680BDC0465804002030
:1016100080B584B000AF78600023FB60FFF7EEFF79
:101620000300FB60C046FFF7E9FF0200FB68D21A27
:101630007B689A42F7D3C046BD4604B080BD000027
:10164000B0B582B000AF02003960FB1D1A70FB1DFF
:101650001B787F2B32D92F4CFB1D1B781A000F23D0
:101660001340083B99082B4AFB1D1B7818000F23D9
:101670000340083B9B0806339B00D31804331B68C8
:10168000FA1D1278100003220240D200FF20904081
:101690000200D2431A403B689B01FF201840FB1D0B
:1016A0001B781D0003232B40DB00984003001A43E6
:1016B0008B1D9B00E31804331A6027E0164CFB1DBA
:1016C0001B785BB29B081449FA1D127852B292083B
:1016D000C03292005258F91D0978080003210140D8
:1016E000C900FF2088400100C94311403A689201B7
:1016F000FF201040FA1D1278150003222A40D20064
:10170000904002000A43C0339B001A51C046BD46B8
:1017100002B0B0BD00ED00E000E100E080B582B0B5
:1017200000AF78607B68013B0C4A934201D90123EA
:1017300010E00B4B7A68013A5A6001235B420321A7
:101740001800FFF77DFF064B00229A60044B07222A
:101750001A6000231800BD4602B080BDFFFFFF00E5
:1017600010E000E080B584B000AFB9607A600F236C
:10177000FB18021C1A70BA680F23FB181B785BB2A7
:1017800011001800FFF75CFFC046BD4604B080BDE5
:1017900080B582B000AF78607B681800FFF7BEFFAD
:1017A00003001800BD4602B080BD000080B582B0C5
:1017B00000AF78607B68042B06D1084B074A12689B
:1017C00004210A431A6005E0044B044A126804210C
:1017D0008A431A60C046BD4602B080BD10E000E0FA
:1017E00080B500AF00F003F8C046BD4680BD80B5AF
:1017F00000AFC046BD4680BD80B582B000AF786006
:10180000B04B1A687B681B681900AF4B99422ED009
:101810007B681B681900AD4B994226D07B681B681A
:101820001900AB4B99421DD07B681B681900A94B6E
:10183000994214D07B681B681900A74B99420BD0C2
:101840007B681B681900A54B994202D180231B04B9
:101850000EE080231B050BE080231B0308E08023A0
:101860001B0205E080231B0102E0802300E0082327
:1018700013405CD07B681B681B680822134056D05D
:101880007B681B687A681268126808218A431A60AC
:101890008C4A7B681B6819008B4B99422ED07B6861
:1018A0001B681900894B994226D07B681B68190078
:1018B000874B99421DD07B681B681900854B994264
:1018C00014D07B681B681900834B99420BD07B684E
:1018D0001B681900814B994202D180231B040EE042
:1018E00080231B050BE080231B0308E080231B02E1
:1018F00005E080231B0102E0802300E00823536001
:101900007B68DB6B01221A437B68DA637B682522E4
:10191000042199547B682422002199547B685B6BD5
:10192000002B04D07B685B6B7A6810009847654B8E
:101930001A687B681B681900634B99422ED07B683C
:101940001B681900614B994226D07B681B681900FF
:101950005F4B99421DD07B681B6819005D4B994213
:1019600014D07B681B6819005B4B99420BD07B68D5
:101970001B681900594B994202D18023DB030EE00A
:101980008023DB040BE08023DB0208E08023DB0103
:1019900005E08023DB0002E0402300E00423134045
:1019A00058D07B681B681B680422134052D07B68A8
:1019B0001B681B682022134007D17B681B687A686C
:1019C0001268126804218A431A603E4A7B681B68C9
:1019D00019003D4B99422ED07B681B6819003B4B88
:1019E000994226D07B681B681900394B99421DD05B
:1019F0007B681B681900374B994214D07B681B68C1
:101A00001900354B99420BD07B681B681900334B8A
:101A1000994202D18023DB030EE08023DB040BE03C
:101A20008023DB0208E08023DB0105E08023DB006C
:101A300002E0402300E0042353607B682522052157
:101A400099547B681B6B002B04D07B681B6B7A68F6
:101A5000100098471B4B1A687B681B6819001A4BCB
:101A600099423DD07B681B681900184B994226D0DB
:101A70007B681B681900164B99421DD07B681B6858
:101A80001900144B994214D07B681B681900124B43
:101A900099420BD07B681B681900104B994202D108
:101AA00080239B031DE080239B041AE080239B027C
:101AB00017E080239B0114E080239B0011E020238A
:101AC0000FE0C04600000240080002401C00024037
:101AD0003000024044000240580002406C000240C6
:101AE0000223134060D07B681B681B6802221340EE
:101AF0005AD07B681B681B682022134007D17B6883
:101B00001B687A681268126802218A431A60284AA0
:101B10007B681B681900274B99422ED07B681B6895
:101B20001900254B994226D07B681B681900234B6E
:101B300099421DD07B681B681900214B994214D033
:101B40007B681B6819001F4B99420BD07B681B6890
:101B500019001D4B994202D180239B030EE0802384
:101B60009B040BE080239B0208E080239B0105E09F
:101B700080239B0002E0202300E0022353607B6867
:101B8000DA6B7B68DA637B682522012199547B68D4
:101B90002422002199547B68DB6A002B04D07B68E7
:101BA000DB6A7A6810009847C046BD4602B080BD27
:101BB00000000240080002401C00024030000240C9
:101BC00044000240580002406C00024080B582B0E0
:101BD00000AF786008001100BB1C021C1A807B1C3F
:101BE0000A1C1A707B1C1B78002B04D0BB1C1A88A3
:101BF0007B689A6103E0BB1C1A887B689A62C046C6
:101C0000BD4602B080BD000080B500AF044B044A61
:101C10001268802149000A431A60C046BD4680BD53
:101C20000070004080B586B000AF786000233B6153
:101C30007B681B680122134000D187E0C04BDB6842
:101C40000C221340082B0ED0BD4BDB680C22134036
:101C50000C2B16D1BA4BDA6880235B021A40802322
:101C60005B029A420DD1B64B1A6880239B02134047
:101C700000D16AE07B685B68002B66D1012300F02D
:101C800069FB7B685A6880235B029A4207D1AC4BA0
:101C9000AB4A1268802149020A431A6027E07B6838
:101CA0005A68A023DB029A420ED1A54BA44A1268BF
:101CB0008021C9020A431A60A14BA14A12688021FF
:101CC00049020A431A6012E09D4B9D4A12689D49E1
:101CD0000A401A609A4B1A6880235B021340FB602B
:101CE000FB68974B964A126897490A401A607B68CE
:101CF0005B68002B14D0FFF781FC03003B6108E018
:101D0000FFF77CFC02003B69D31A642B01D9032343
:101D100020E38B4B1A6880239B021340F0D015E020
:101D2000FFF76CFC03003B6108E0FFF767FC020073
:101D30003B69D31A642B01D903230BE3804B1A6848
:101D400080239B021340F0D100E0C0467B681B68F3
:101D50000222134000D16CE0794BDB680C22134067
:101D6000042B0BD0764BDB680C2213400C2B1BD1C1
:101D7000734BDA6880235B02134015D1704B1B68EC
:101D80000422134005D07B68DB68012B01D00123BE
:101D9000E0E26B4A6A4B5B686C4919407B681B69DF
:101DA0001B020B43536044E07B68DB68002B27D0A9
:101DB000634A634B1B6809218B4319007B68DB680E
:101DC0000B431360FFF71AFC03003B6108E0FFF7C9
:101DD00015FC02003B69D31A022B01D90323B9E297
:101DE000574B1B6804221340F1D0554A544B5B6893
:101DF000564919407B681B691B020B43536018E06E
:101E00004F4B4F4A126801218A431A60FFF7F6FBD5
:101E100003003B6108E0FFF7F1FB02003B69D31AC6
:101E2000022B01D9032395E2454B1B680422134082
:101E3000F1D17B681B681022134000D1C2E0404BF7
:101E4000DB680C22134062D13D4B1A6880239B0053
:101E5000134005D07B68DB69002B01D1012379E2B7
:101E60007B685A6A364B5968E0231B020B409A4242
:101E70001CD97B685B6A180000F018FC031E01D0B7
:101E8000012367E22E4A2E4B5B68314919407B687B
:101E90005B6A0B4353602A4A294B5B681B02190A91
:101EA0007B681B6A1B060B4353601BE0244A244BD0
:101EB0005B68274919407B685B6A0B435360204A83
:101EC0001F4B5B681B02190A7B681B6A1B060B43CE
:101ED00053607B685B6A180000F0E8FB031E01D0CA
:101EE000012337E27B685B6A5B0B013380221202BD
:101EF0009A40134BDB681B090F210B401549CB5C43
:101F0000DA40154B1A600020FFF74EFB5AE07B6861
:101F1000DB69002B3CD00A4B094A1268802149003A
:101F20000A431A60FFF76AFB03003B6116E0FFF704
:101F300065FB02003B69D31A022B0FD9032309E288
:101F400000100240FFFFFEFFFFFFFBFFFFE0FFFF6F
:101F5000FF1FFFFF3042000804000020C74B1A6833
:101F600080239B001340E2D0C44AC44B5B68C44941
:101F700019407B685B6A0B435360C04ABF4B5B6888
:101F80001B02190A7B681B6A1B060B43536019E08E
:101F9000BA4BBA4A1268BB490A401A60FFF72EFBD7
:101FA00003003B6108E0FFF729FB02003B69D31AFD
:101FB000022B01D90323CDE1B04B1A6880239B008B
:101FC0001340F0D17B681B680822134036D07B6831
:101FD0005B69002B19D0A94BA84A126D01210A4355
:101FE0001A65FFF70BFB03003B6108E0FFF706FBF8
:101FF00002003B69D31A022B01D90323AAE19F4BAC
:102000001B6D02221340F1D018E09C4B9B4A126DCD
:1020100001218A431A65FFF7F1FA03003B6108E0EA
:10202000FFF7ECFA02003B69D31A022B01D9032314
:1020300090E1924B1B6D02221340F1D17B681B682B
:102040000422134000D1AFE01723FB1800221A70BE
:102050008A4B9A6B80235B0513400AD1874B874AD2
:10206000926B802149050A439A631723FB180122CA
:102070001A70854B1A6880235B0013401AD1824B7B
:10208000814A1268802149000A431A60FFF7B6FAB4
:1020900003003B6108E0FFF7B1FA02003B69D31A85
:1020A000642B01D9032355E1774B1A6880235B0029
:1020B0001340F0D07B689A6880235B009A4207D176
:1020C0006E4B6E4A126D802149000A431A6531E059
:1020D0007B689B68002B0CD1684B684A126D69497C
:1020E0000A401A65654B654A126D68490A401A65CF
:1020F00020E07B689A68A023DB009A420ED15F4BF8
:102100005E4A126D8021C9000A431A655B4B5B4A27
:10211000126D802149000A431A650BE0574B574A5C
:10212000126D58490A401A65544B544A126D57496A
:102130000A401A657B689B68002B15D0FFF75EFA92
:1021400003003B6109E0FFF759FA02003B69D31A2B
:102150004F4A934201D90323FCE0484B1A6D802378
:102160009B001340EFD014E0FFF748FA03003B61F7
:1021700009E0FFF743FA02003B69D31A444A93424D
:1021800001D90323E6E03D4B1A6D80239B001340E9
:10219000EFD11723FB181B78012B05D1374B374A9A
:1021A000926B3C490A409A637B681B68202213406B
:1021B00049D07B689B69002B26D0304B2F4A926810
:1021C00001210A439A602D4B2C4A526B01210A438C
:1021D0005A63314B304A126A802189010A431A62DC
:1021E000FFF70CFA03003B6108E0FFF707FA020073
:1021F0003B69D31A022B01D90323ABE01F4B9B6829
:1022000002221340F1D01EE01C4B1C4A92680121AF
:102210008A439A60204B204A126A20490A401A6277
:10222000FFF7ECF903003B6108E0FFF7E7F9020074
:102230003B69D31A022B01D903238BE00F4B9B6818
:1022400002221340F1D17B689B6A002B00D180E011
:102250000A4BDB680C2213400C2B00D177E07B6823
:102260009B6A022B58D1054B044A12680C490A405C
:102270001A60FFF7C3F903003B611CE00010024045
:10228000FF1FFFFFFFFEFFFF00700040FFFBFFFF8F
:1022900088130000FFFFFFEF00000140FFDFFFFF9A
:1022A000FFFFFFFEFFF7AAF902003B69D31A022BDA
:1022B00001D903234EE0294B1A6880239B04134065
:1022C000F0D1264A254BDB68254919407B68D86A3E
:1022D0007B681B6B18437B685B6B03430B43D360CA
:1022E0001E4B1E4A1268802149040A431A60FFF7F8
:1022F00085F903003B6108E0FFF780F902003B69C4
:10230000D31A022B01D9032324E0144B1A6880232B
:102310009B041340F0D01CE0104B104A1268114986
:102320000A401A60FFF76AF903003B6108E0FFF713
:1023300065F902003B69D31A022B01D9032309E096
:10234000064B1A6880239B041340F0D101E001235F
:1023500000E000231800BD4606B080BD001002401A
:10236000FFFF02FFFFFFFFFE80B584B000AF786083
:1023700039600023FB60824B1B6801221A403B68D6
:102380009A4211D27E4B7E4A126801218A43110083
:102390003A680A431A607A4B1B6801221A403B686C
:1023A0009A4201D00123E6E07B681B6802221340B9
:1023B00009D0744A734BDB68F0218B4319007B68AA
:1023C0009B680B43D3607B681B680122134000D1DC
:1023D00089E07B685B68022B07D16A4B1A6880230F
:1023E0009B02134020D10123C5E07B685B68032B6F
:1023F00007D1644B1A6880239B04134014D1012336
:10240000B9E07B685B68012B06D15E4B1B68042238
:10241000134009D10123AEE05A4B1A6880239B0078
:10242000134001D10123A6E0564A564BDB68032135
:102430008B4319007B685B680B43D360FFF7DEF8C2
:102440000300FB607B685B68022B11D109E0FFF79A
:10245000D5F80200FB68D31A4B4A934201D90323F3
:1024600089E0484BDB680C221340082BEFD13AE09F
:102470007B685B68032B11D109E0FFF7BFF802000E
:10248000FB68D31A404A934201D9032373E03D4BC2
:10249000DB680C2213400C2BEFD124E07B685B68D7
:1024A000012B1BD109E0FFF7A9F80200FB68D31A42
:1024B000354A934201D903235DE0324BDB680C229D
:1024C0001340042BEFD10EE0FFF798F80200FB68F1
:1024D000D31A2D4A934201D903234CE0294BDB68E0
:1024E0000C221340F0D1264B1B6801221A403B6896
:1024F0009A4211D9224B224A126801218A431100C3
:102500003A680A431A601E4B1B6801221A403B6856
:102510009A4201D001232EE07B681B6804221340FD
:1025200008D0184A174BDB68184919407B68DB68EC
:102530000B43D3607B681B680822134009D0114A03
:10254000104BDB68124919407B681B69DB000B43A9
:10255000D36000F023F801000A4BDB681B090F224F
:1025600013400C4AD35C0A00DA400B4B1A6000207F
:10257000FFF71AF800231800BD4604B080BDC0461E
:10258000002002400010024088130000FFF8FFFF07
:10259000FFC7FFFF304200080400002080B586B06E
:1025A00000AF0023FB600023BB6000237B6000239F
:1025B0007B6100233B6000233B61324BDB68FB60A7
:1025C000FB680C221340082B0ED00C2B0FD0042BD1
:1025D00045D12C4B1B681022134002D02A4B3B6183
:1025E0004BE02A4B3B6148E0294B3B6145E0FB68EF
:1025F0009B0C0F221340274AD35CBB60FB689B0DEA
:102600000322134001337B601E4BDA6880235B0298
:10261000134009D0BB681E4A534379681800FDF780
:1026200073FD03007B6117E0164B1B6810221340FB
:1026300009D0BB68144A534379681800FDF764FD5C
:1026400003007B6108E0BB68104A534379681800B7
:10265000FDF75AFD03007B617B693B610DE0094B8F
:102660005B685B0B072213403B603B6801338022B1
:1026700012029A4013003B61C0463B691800BD46F8
:1026800006B080BD0010024000093D000024F400A7
:1026900000127A004042000880B500AF024B1B6870
:1026A0001800BD4680BDC0460400002080B584B03F
:1026B00000AF78600023FB600023BB60234BDB6826
:1026C000F02213402BD1214B9A6B80235B051340E2
:1026D00006D01F4B1A68C0235B011340FB6012E059
:1026E0001A4B1A4A926B802149050A439A63184B88
:1026F0001A68C0235B011340FB60144B134A926BB2
:1027000014490A409A63FA68C0235B019A4206D1D1
:102710007A68C0231B029A4201D10123BB600E4B91
:102720000D4A126801218A431100BA680A431A60EF
:10273000094B1B6801221A40BB689A4201D0012351
:1027400000E000231800BD4604B080BD0010024028
:1027500000700040FFFFFFEF0020024080B586B010
:1027600000AF786000233B610023FB607B681B683F
:102770002022134000D1C3E01723FB1800221A7057
:102780008D4B9A6B80235B0513400AD18A4B8A4A92
:10279000926B802149050A439A631723FB18012293
:1027A0001A70864B1A6880235B0013401AD1834B42
:1027B000824A1268802149000A431A60FEF71EFF10
:1027C00003003B6108E0FEF719FF02003B69D31AE2
:1027D000642B01D90323EAE0784B1A6880235B005D
:1027E0001340F0D0744B1A68C0239B031340FB6066
:1027F0007B685A68C0239B031A40FB689A4210D03A
:102800007B685A68C0239B021A40C0239B029A42ED
:1028100007D1694B1A6880239B02134001D0012322
:10282000C5E0654B1A6DC0239B021340FB60FB683B
:10283000002B3BD07B685A68C0239B021A40FB6880
:102840009A4233D07B681B68202213402ED05A4B0B
:102850001B6D5B4A1340FB60574B574A126D80213A
:1028600009030A431A65544B534A126D55490A40ED
:102870001A65514BFA681A65FA6880235B001340A9
:1028800014D0FEF7BBFE03003B6109E0FEF7B6FE85
:1028900002003B69D31A4C4A934201D9032386E0D4
:1028A000454B1A6D80239B001340EFD07B685A681C
:1028B000C0239B021A40C0239B029A420BD13E4A7E
:1028C0003D4B1B68414919407B685868C0239B03F6
:1028D00003400B431360384A374B196D7B685868C7
:1028E000C0239B0203400B4313651723FB181B787F
:1028F000012B05D1304B304A926B35490A409A631F
:102900007B681B680122134009D02B4A2A4BDB6CE1
:1029100003218B4319007B689B680B43D3647B685E
:102920001B680222134009D0234A234BDB6C0C2185
:102930008B4319007B68DB680B43D3647B681B689F
:102940000422134008D01C4A1B4BDB6C2149194060
:102950007B681B690B43D3647B681B6808221340A8
:1029600008D0154A144BDB6C1B4919407B685B6926
:102970000B43D3647B681B684022134008D00E4A87
:102980000D4BDB6C154919407B68DB690B43D36445
:102990007B681B688022134008D0074A064BDB6C1B
:1029A0000F4919407B689B690B43D36400231800CF
:1029B000BD4606B080BDC046001002400070004019
:1029C000FFFFFCFFFFFFF7FF88130000FFFFCFFFB3
:1029D000FFFFFFEFFFF3FFFFFFCFFFFFFFFFFFFB57
:1029E000FFFFF3FF80B582B000AF78607B68002BFB
:1029F00001D1012374E07B6821229B5CDBB2002BB8
:102A000007D17B682022002199547B68180001F0CF
:102A1000D3FA7B682122022199547B681B68CA2261
:102A20005A627B681B6853225A627B68180000F068
:102A3000C0FA031E09D07B681B68FF225A627B68BC
:102A400021220421995401234AE07B681B687A689B
:102A50001268926824490A409A607B681B687A6809
:102A6000126891687A6850687A68126910437A68C7
:102A7000926902430A439A607B681B687A68D2684D
:102A80001A617B681B687A68126811697A689268B3
:102A900012040A431A617B681B687A681268D2685C
:102AA00080218A43DA607B681B687A681268D26C7E
:102AB00003218A43DA647B681B687A681268D16CE8
:102AC0007A68D0697A68526902430A43DA647B689B
:102AD0001B68FF225A627B6821220121995400233E
:102AE0001800BD4602B080BDBFFF8FFF90B587B014
:102AF00000AFF860B9607A6000237B61FB68202238
:102B00009B5C012B01D10223B5E0FB68202201214F
:102B10009954FB682122022199547B68002B25D10E
:102B2000FB681B689B684022134002D1BB680022EF
:102B3000DA70BB681B78180000F067FA03001C0409
:102B4000BB685B78180000F060FA03001B021C43AE
:102B5000BB689B78180000F058FA030022001A4363
:102B6000BB68DB781B0413437B611FE0FB681B68B9
:102B70009B684022134007D0BB681B78180000F008
:102B800065FA03007B6102E0BB680022DA70BB6873
:102B90001B781A04BB685B781B021343BA689278EF
:102BA0001A43BB68DB781B0413437B61FB681B681B
:102BB000CA225A62FB681B6853225A62FB681800DB
:102BC00000F0F7F9031E0DD0FB681B68FF225A6264
:102BD000FB68212204219954FB682022002199548A
:102BE000012348E0FB681B687A6925490A401A609E
:102BF000FB681B68FA681268926822490A409A606A
:102C0000FB681B68FA6812689168BA68D068BA688D
:102C1000126902430A439A60FB681B68FA681268EB
:102C2000D26880218A43DA60FB681B689B68202297
:102C3000134013D1FB68180000F092F9031E0DD069
:102C4000FB681B68FF225A62FB6821220421995409
:102C5000FB6820220021995401230CE0FB681B68CB
:102C6000FF225A62FB68212201219954FB6820222D
:102C70000021995400231800BD4607B090BDC046FE
:102C80007F7F7F00FFFFFBFF80B586B000AFF8605D
:102C9000B9607A6000237B61FB681B689A6ABB6835
:102CA0005A60FB681B681B695B045A0CBB689A601E
:102CB000FB681B681B68224A13407B617B691B0C05
:102CC000DBB23F221340DAB2BB681A707B691B0A81
:102CD000DBB27F221340DAB2BB685A707B69DBB289
:102CE0007F221340DAB2BB689A707B691B0CDBB29F
:102CF00040221340DAB2BB68DA707B68002B1AD12D
:102D0000BB681B78180000F0A1F903001A00BB682B
:102D10001A70BB685B78180000F098F903001A007D
:102D2000BB685A70BB689B78180000F08FF90300ED
:102D30001A00BB689A7000231800BD4606B080BD1B
:102D40007F7F7F0090B587B000AFF860B9607A6090
:102D500000237B61FB6820229B5C012B01D10223B5
:102D6000A7E0FB68202201219954FB68212202215F
:102D700099547B68002B0ED1BB685B781A00102336
:102D8000134008D0BB685B7810229343DBB20A3350
:102D9000DAB2BB685A707B68002B1CD1BB68DB7849
:102DA000180000F032F903001C04BB685B781800BF
:102DB00000F02BF903001B021C43BB689B78180032
:102DC00000F023F9030022001A43BB681B785B0361
:102DD00013437B611CE0BB685B78180000F036F998
:102DE00003007B61BB689B78180000F02FF903009B
:102DF0007B61BB68DB781A04BB685B781B021343FA
:102E0000BA6892781A43BB681B785B0313437B61F3
:102E1000FB681B68CA225A62FB681B6853225A620D
:102E2000FB68180000F0C5F8031E0DD0FB681B6896
:102E3000FF225A62FB68212204219954FB68202258
:102E400000219954012334E0FB681B687A691B490F
:102E50000A405A60FB681B68FA681268D2688021D1
:102E60008A43DA60FB681B689B682022134013D1F9
:102E7000FB68180000F074F8031E0DD0FB681B6897
:102E8000FF225A62FB68212204219954FB68202208
:102E90000021995401230CE0FB681B68FF225A6251
:102EA000FB68212201219954FB68202200219954BA
:102EB00000231800BD4607B090BDC0463FFFFF008D
:102EC00080B586B000AFF860B9607A6000237B619E
:102ED000FB681B685B68214A13407B617B691B0CA4
:102EE000DAB2BB68DA707B691B0ADBB21F221340BF
:102EF000DAB2BB685A707B69DBB23F221340DAB2A8
:102F0000BB689A707B695B0BDBB207221340DAB2B5
:102F1000BB681A707B68002B1AD1BB68DB7818007D
:102F200000F094F803001A00BB68DA70BB685B78A5
:102F3000180000F08BF803001A00BB685A70BB68D9
:102F40009B78180000F082F803001A00BB689A70A2
:102F500000231800BD4606B080BDC0463FFFFF00FD
:102F600080B584B000AF78600023FB607B681B688D
:102F70007A681268D268A0218A43DA60FEF73EFBC5
:102F80000300FB600AE0FEF739FB0200FB68D21A7F
:102F9000FA239B009A4201D9032306E07B681B6851
:102FA000DB6820221340EED000231800BD4604B099
:102FB00080BD80B584B000AF78600023FB607B6883
:102FC0001B68DB68402213401AD17B681B68012212
:102FD0005242DA60FEF712FB0300FB600AE0FEF7E4
:102FE0000DFB0200FB68D21AFA239B009A4201D91A
:102FF000032306E07B681B68DB6840221340EED0A9
:1030000000231800BD4604B080BD80B584B000AF79
:103010000200FB1D1A700023FB6007E0FB68013310
:10302000FB60FB1DFA1D12780A3A1A70FB1D1B7813
:10303000092BF3D8FB68DBB21B01DAB2FB1D1B784E
:103040001343DBB21800BD4604B080BD80B584B028
:1030500000AF0200FB1D1A700023FB60FB1D1B78F4
:103060001B09DBB21A0013009B009B185B00FB607E
:10307000FB1D1B780F221340DAB2FB68DBB2D318BA
:10308000DBB21800BD4604B080BD80B582B000AF91
:10309000786039607B681B6839680122180000F08D
:1030A00007FA7B681B687A681268126801210A4374
:1030B0001A6000231800BD4602B080BD80B582B002
:1030C00000AF786039607B681B683968002218009F
:1030D00000F0EEF97B681B681B6A0A4A134007D1AF
:1030E0007B681B687A681268126801218A431A603B
:1030F0007B6835220121995400231800BD4602B097
:1031000080BDC0461111000080B584B000AFF860EA
:10311000B9607A60FB6834229B5C012B01D10223E9
:10312000A4E0FB68342201219954FB683522022176
:1031300099547B68042B29D002D8002B05D08CE051
:10314000082B46D00C2B65D087E0FB681B68BA685B
:103150001100180000F090F8FB681B68FA6812680C
:10316000926908210A439A61FB681B68FA68126831
:10317000926904218A439A61FB681B68FA681268A5
:103180009169BA68D2680A439A6166E0FB681B6875
:10319000BA681100180000F0B1F8FB681B68FA6803
:1031A00012689269802109010A439A61FB681B68D1
:1031B000FA68126892692F490A409A61FB681B6895
:1031C000FA6812689169BA68D26812020A439A6171
:1031D00043E0FB681B68BA681100180000F0D6F8DD
:1031E000FB681B68FA681268D26908210A43DA6131
:1031F000FB681B68FA681268D26904218A43DA61A5
:10320000FB681B68FA681268D169BA68D2680A4319
:10321000DA6122E0FB681B68BA681100180000F050
:10322000FBF8FB681B68FA681268D2698021090103
:103230000A43DA61FB681B68FA681268D2690D49B3
:103240000A40DA61FB681B68FA681268D169BA68DB
:10325000D26812020A43DA61C046FB6835220121B6
:103260009954FB6834220021995400231800BD466C
:1032700004B080BDFFFBFFFF80B586B000AF786073
:10328000396000237B6100233B610023FB607B6886
:103290001B6A012293431A007B681A627B681B6ACF
:1032A0003B617B685B68FB607B689B697B617B69DA
:1032B000702293437B617B69032293437B613B686C
:1032C0001B687A6913437B613B69022293433B612C
:1032D0003B689B683A6913433B617B68FA685A60B4
:1032E0007B687A699A613B685A687B685A637B6835
:1032F0003A691A62C046BD4606B080BD80B586B048
:1033000000AF7860396000237B6100233B610023BC
:10331000FB607B681B6A102293431A007B681A6269
:103320007B681B6A3B617B685B68FB607B689B69B1
:103330007B617B69134A13407B617B69124A1340AE
:103340007B613B681B681B027A6913437B613B69A5
:10335000202293433B613B689B681B013A691343FE
:103360003B617B68FA685A607B687A699A613B685E
:103370005A687B689A637B683A691A62C046BD46A0
:1033800006B080BDFF8FFFFFFFFCFFFF80B586B05A
:1033900000AF7860396000237B6100233B6100232C
:1033A000FB607B681B6A1A4A1A407B681A627B685A
:1033B0001B6A3B617B685B68FB607B68DB697B61E8
:1033C0007B69702293437B617B69032293437B611A
:1033D0003B681B687A6913437B613B690D4A134064
:1033E0003B613B689B681B023A6913433B617B6806
:1033F000FA685A607B687A69DA613B685A687B6868
:10340000DA637B683A691A62C046BD4606B080BD81
:10341000FFFEFFFFFFFDFFFF80B586B000AF7860C5
:10342000396000237B6100233B610023FB607B68E4
:103430001B6A1B4A1A407B681A627B681B6A3B61E5
:103440007B685B68FB607B68DB697B617B69154A35
:1034500013407B617B69144A13407B613B681B68A6
:103460001B027A6913437B613B69104A13403B613D
:103470003B689B681B033A6913433B617B68FA68AE
:103480005A607B687A69DA613B685A687B681A64BB
:103490007B683A691A62C046BD4606B080BDC04628
:1034A000FFEFFFFFFF8FFFFFFFFCFFFFFFDFFFFFCF
:1034B00080B586B000AFF860B9607A6000237B61A8
:1034C0000122BB689A4013007B61FB681B6A7A6922
:1034D000D2431A40FB681A62FB681A6A7968BB68B3
:1034E00099400B001A43FB681A62C046BD4606B0FD
:1034F00080BD000080B500AF114B1B8801339AB22C
:103500000F4B1A800F4B1B8801339AB20D4B1A8058
:103510000C4B1B880C4A93420FD9094B9B78013303
:10352000DAB2074B9A70064B9B783F2B02D9044BBB
:1035300000229A70034B00221A80C046BD4680BD0F
:103540005C04002024000020E703000080B500AFE9
:1035500000F032F8154B1B78012B03D0134B1B786E
:10356000022B0BD1124B00211800FFF78EFD031E1A
:1035700004D0104B7421180000F052FA0B4B1B784A
:10358000002B03D0094B1B78022B0BD1084B0421D5
:103590001800FFF77AFD031E04D0064B7D211800AA
:1035A00000F03EFAC046BD4680BDC0466100002026
:1035B000280000208041000880B500AF0D4B00219D
:1035C0001800FFF77BFD031E04D00B4B872118006A
:1035D00000F026FA074B04211800FFF76FFD031EC9
:1035E00004D0054B8D21180000F01AFAC046BD46E4
:1035F00080BDC046280000208041000890B589B0F9
:1036000000AF0200FB1D1A70BB1D0A1C1A700C23B0
:10361000FB1860221A600C23FB1800229A600C230E
:10362000FB180022DA60364BFB61364B1B78012B0E
:1036300003D0344B1B78022B29D1FB1D1B781800BB
:10364000FCF72CFF031CF969181CFCF707FE031C90
:10365000181CFDF7E7FD00222B4BFCF765FF03006C
:103660000C0018002100FCF7DBFD02000C23FB1806
:103670005A600C23F918254B00221800FFF744FD6F
:10368000031E04D0224BA121180000F0C9F91D4BE4
:103690001B78002B03D01B4B1B78022B29D1BB1DA1
:1036A0001B781800FCF7FAFE031CF969181CFCF7DC
:1036B000D5FD031C181CFDF7B5FD0022124BFCF7CD
:1036C00033FF03000C0018002100FCF7A9FD0200E5
:1036D0000C23FB185A600C23F9180C4B0422180019
:1036E000FFF712FD031E04D0094BAB21180000F0B8
:1036F00097F9FFF72BFFC046BD4609B090BDC04605
:1037000000FEF9466100002000005940280000201A
:103710008041000880B500AF424B1B78002B00D1E0
:103720006FE0414B1B78012B00D06AE03F4B1B68D8
:103730005A1C3E4B1A603D4B1B680E2B06DD3C4B62
:1037400001221A70394B00221A6002E0384B002225
:103750001A70374B1B78002B60D0324B1B78002B34
:103760005CD0344B1B78012B12D1334B1B68632B7D
:1037700005DC314B1B685A1C2F4B1A601AE02E4B8C
:103780001B685A1E2C4B1A602A4B00221A7011E03B
:10379000294B1B68002B05DD274B1B685A1E264B47
:1037A0001A6007E0244B1B685A1C234B1A60214BFC
:1037B00001221A70214B1B78002B07D11E4B1B686E
:1037C000DBB219000020FFF719FF27E01B4B1B7825
:1037D000012B07D1184B1B68DBB200211800FFF743
:1037E0000DFF1BE0154B1B78022B17D1124B1B68EA
:1037F000DAB2114B1B68DBB219001000FFF7FEFEB6
:103800000CE00D4B00221A60084B00221A60094B95
:1038100000221A70064B00221A7000E0C046C04613
:10382000BD4680BD600000206200002064000020D2
:1038300068000020000000206C00002061000020D3
:1038400090B58DB000AFFDF79BFE00F057F800F08B
:1038500003FB1C23FB18180014231A00002100F09E
:103860007BFC0D4B1800FDF7D3FE1C23FB18180042
:1038700000F058FB094B1800FDF7CAFE1C23FC188A
:103880003B00180000F04EFB3A00230013CA13C39C
:1038900003CA03C3DDE7C04610270000B80B0000D1
:1038A00080B500AF104B1B685A1C0F4B1A600E4BB3
:1038B0001B680E4A934207DD0D4B1B685A1C0C4BCC
:1038C0001A60094B00221A600A4B1A780A4B1B78BF
:1038D0009A4202D0064B00221A60074B1A78054B19
:1038E0001A70C046BD4680BD78000020E703000086
:1038F000740000207C0000207000002080B59CB087
:1039000000AF434B424A126842490A4080210901F4
:103910000A431A60FEF778F93F4B3F4A126D3D4962
:103920000A401A653823FB1806221A603823FB1850
:103930000122DA603823FB18802252009A60382373
:10394000FB1810221A613823FB1800229A623823D0
:10395000FB181800FEF766F9031E06D096235A00DE
:103960002E4B1100180000F05BF82423FB180F22E7
:103970001A602423FB1801225A602423FB1800221A
:103980009A602423FB180022DA602423FB1800220B
:103990001A612423FB1800211800FEF7E5FC031E22
:1039A00006D09D235A001D4B1100180000F038F876
:1039B0003B1D20221A603B1D802252025A603B1D93
:1039C0001800FEF7CBFE031E07D04223FF331A0078
:1039D000124B1100180000F023F8FEF75DFE020004
:1039E000FA2399001000FCF78FFB03001800FDF785
:1039F000CFFE0420FDF7DAFE01235B420022002106
:103A00001800FDF7AFFEC046BD461CB080BDC046E5
:103A100000700040FFE7FFFF0010024090410008E7
:103A200080B582B000AF78603960FEE780B500AF46
:103A3000A023DB05012210211800FEF7C7F8C046BD
:103A4000BD4680BD80B500AFA023DB05002210215C
:103A50001800FEF7BBF8C046BD4680BD80B584B0F7
:103A600000AF914B1B78002B00D118E18F4B1B78D6
:103A7000012B15D0022B00D1E3E0002B00D00EE18A
:103A80008B4B00221A608B4B00221A608A4B00225B
:103A90001A708A4B00221A60844B01221A70FEE0D1
:103AA000844B1B68172B4FDC814B1A68814B1968BC
:103AB000834813005B009B18DB00C3185A5C7E4BE5
:103AC0001A708023FB600023BB6034E07A4B1B78C4
:103AD0001A00FB68134007D080231901A023DB05DF
:103AE00001221800FEF772F88023D900A023DB051D
:103AF00001221800FEF76AF800237B600AE08023A9
:103B0000D900A023DB0500221800FEF75FF87B68D0
:103B100001337B607B68032BF1DD80231901A02337
:103B2000DB0500221800FEF751F8FB685B10FB6014
:103B3000BB680133BB60BB68072BC7DD5D4B1B68EF
:103B40005A1C5C4B1A60A9E0594B1B68272B00DDFF
:103B500070E05A4B1B685A1C584B1A60574B1B6835
:103B6000012B16DC80239900A023DB05002218001E
:103B7000FEF72CF8534B002202211800FEF726F81E
:103B800080235900A023DB0500221800FEF71EF851
:103B900084E04A4B1B68322B00DC7FE0474B1B68FC
:103BA000332B16DC474B012202211800FEF70EF8DA
:103BB00080235900A023DB0501221800FEF706F838
:103BC00080239900A023DB0501221800FDF7FEFFEA
:103BD00064E03A4B1B68352B02DCFFF727FF5DE002
:103BE000364B1B68362B03DC002000F06DF855E0E7
:103BF000324B1B683C2B51DD304B1B683D2B03DCEB
:103C0000002000F061F849E02C4B1B68432B45DD98
:103C10002A4B1B68442B41DCFFF714FF244B1B6825
:103C20005A1C234B1A60234B00221A60234B00229C
:103C30001A6033E01E4B00221A601C4B02221A70DD
:103C40002CE08023D900A023DB0500221800FDF71B
:103C5000BDFF80231901A023DB0500221800FDF71A
:103C6000B5FF184B012202211800FDF7AFFF80239A
:103C70005900A023DB0501221800FDF7A7FF8023D0
:103C80009900A023DB0501221800FDF79FFF064BDA
:103C900000221A70054B00221A7000E0C046C04690
:103CA000BD4604B080BDC046400400204104002051
:103CB00044040020480400204C040020500400204C
:103CC000800000200004005080B582B000AF0200E8
:103CD000FB1D1A70584B1B78012B30D002DC002BD7
:103CE00006D0A1E0022B51D0032B00D175E09BE060
:103CF000A023DB05002220211800FDF767FFA02389
:103D0000DB05012240211800FDF760FF4B4B01222B
:103D100001211800FDF75AFFA023DB0500228021B6
:103D20001800FDF753FFFB1D1B78012B03D1424BFD
:103D300001221A707CE0404B03221A7078E0A02325
:103D4000DB05002220211800FDF740FFA023DB0542
:103D5000012240211800FDF739FF384B00220121D4
:103D60001800FDF733FFA023DB0501228021180096
:103D7000FDF72CFFFB1D1B78012B03D12E4B0222DC
:103D80001A7055E02C4B00221A7051E0A023DB057D
:103D9000012220211800FDF719FFA023DB050022D6
:103DA00040211800FDF712FF244B002201211800CA
:103DB000FDF70CFFA023DB05012280211800FDF791
:103DC00005FFFB1D1B78012B03D11B4B03221A702F
:103DD0002EE0194B01221A702AE0A023DB050122F4
:103DE00020211800FDF7F2FEA023DB050022402170
:103DF0001800FDF7EBFE114B012201211800FDF721
:103E0000E5FEA023DB05002280211800FDF7DEFE81
:103E1000FB1D1B78012B03D1074B00221A7007E012
:103E2000054B02221A7003E0034B00221A70C046B1
:103E3000C046BD4602B080BD5404002000040050BE
:103E400080B500AF034B1800FDF7D6FCC046BD4659
:103E500080BDC0467C04002080B586B000AF2E4BEC
:103E60002E4A1A602C4B00225A602B4B7F229A60FC
:103E7000294BFF22DA60284B00221A61264B0022D0
:103E80005A61254B00229A61234B0022DA61224BB2
:103E90001800FEF7A7FD031E04D0214B3A2118009D
:103EA000FFF7BEFD3B1D02221A703B1D02225A7015
:103EB0003B1D04229A703B1D0022DA603B1D00224C
:103EC0001A61391D144B01221800FEF70FFE031E64
:103ED00004D0134B45211800FFF7A2FD3B0001223F
:103EE0001A703B0001225A703B0001229A703B007D
:103EF0000022DA703900084B01221800FEF722FF79
:103F0000031E04D0064B4F211800FFF789FDC04661
:103F1000BD4606B080BDC0461C05002000280040FC
:103F2000A041000890B589B000AF78600C23F91863
:103F30000B4B00221800FEF7A7FE0823F918084BC8
:103F400000221800FEF7BCFF7B680C22BA1813CAC7
:103F500013C303CA03C37868BD4609B090BDC04609
:103F60001C05002080B500AF124B124A526B012194
:103F70000A435A630F4B0F4A926B802149050A434B
:103F80009A6305235B42002200211800FDF7EAFB3B
:103F900002235B42002200211800FDF7E3FB01230E
:103FA0005B42002200211800FDF7DCFBC046BD4645
:103FB00080BDC0460010024080B582B000AF78607E
:103FC0007B681B68064A934206D1064B054A126D70
:103FD0008021C9020A431A65C046BD4602B080BDB1
:103FE000002800400010024080B500AFC046BD462A
:103FF00080BD80B500AFFEE780B500AFC046BD46CE
:1040000080BD80B500AFC046BD4680BD80B500AF65
:10401000FDF7E8FAFEF740FB0200084B9A4209D987
:10402000FDF7DEFBFFF766FAFFF774FBFFF738FCDE
:10403000FFF714FDC046BD4680BDC04640420F009C
:1040400080B500AF174B174A1268802149000A4318
:104050001A60144B134AD26813490A40DA60114BB4
:10406000104A126811490A401A600E4B0D4A9268B4
:1040700001218A439A600B4B0A4A12680C490A4094
:104080001A60084B074AD2680A490A40DA60054BB1
:1040900000221A61084B802212059A60C046BD4674
:1040A00080BDC046001002400C40FF88F6FFF6FEBF
:1040B000FFFFFBFFFFFF02FF00ED00E00D4885461C
:1040C000002103E00C4B5B58435004310B480C4B70
:1040D00042189A42F6D30B4A02E0002313600432DE
:1040E000094B9A42F9D3FFF7ABFF00F011F8FFF745
:1040F000A7FBFEE70020002054420008000000203B
:10410000080000200800002040050020FEE7000015
:1041100070B500260C4D0D4C641BA410A64209D1AD
:10412000002600F021F80A4D0A4C641BA410A64298
:1041300005D170BDB300EB5898470136EEE7B300E8
:10414000EB5898470136F2E74C4200084C42000811
:104150004C4200085042000803008218934200D1EC
:10416000704719700133F9E7F8B5C046F8BC08BCD0
:104170009E467047F8B5C046F8BC08BC9E467047DE
:104180002E2E5C5372635C6C65642E63000000002D
:104190002E2E5C5372635C6D61696E2E63000000AD
:1041A0002E2E5C5372635C7274632E6300000000F9
:1041B00088030008D8020008D8020008D6020008C8
:1041C0007A0300087A03000870030008D60200088A
:1041D0007A030008700300087A030008D60200087A
:1041E0008003000880030008800300081004000812
:1041F0002007000802070008BC060008DA050008CE
:10420000BC060008F4060008BC060008DA05000831
:104210000207000802070008F4060008DA05000893
:10422000D2050008D2050008D205000838090008A8
:104230000000000000000000010203040607080956
:0C424000030406080C10182030000000D9
:04424C00E90000087D
:04425000C1000008A1
:084254000100000080841E003F
:04000005080040BDF2
:00000001FF
